:020000040800F2
:1000000000500020E113000831140008D11000084E
:1000100000000000000000000000000000000000E0
:100020000000000000000000000000003114000883
:10003000000000000000000031140008BD1000089E
:1000400031140008311400085D1200083114000852
:1000500031140008111000082110000831100008A8
:1000600000000000311400083114000821130008BA
:1000700031140008A11200083114000831140008DE
:100080003114000831140008311400080000000089
:10009000311400083114000831140008311400082C
:1000A000311400083114000831140008311400081C
:1000B00031130008311400080000000000000000A7
:1000C0000023C25C0133002AFBD1581E7047000098
:1000D00003B47146490840004900095E49008E4456
:1000E00003BC7047002934D00123002210B4884299
:1000F0002CD301242407A14204D2814202D2090157
:100100001B01F8E7E400A14204D2814202D2490077
:100110005B00F8E7884201D3401A1A434C08A0421A
:1001200002D3001B5C0822438C08A04202D3001BB0
:100130009C082243CC08A04202D3001BDC082243C7
:10014000002803D01B0901D00909E3E7100010BC07
:10015000704701B5002000F00BF802BD0029F8D06F
:1001600003B5FFF7C1FF0EBC4243891A1847C046CA
:100170007047C04610B5064C2378002B07D1054BBD
:10018000002B02D0044800E000BF0123237010BD03
:1001900058000020000000008C1D0008044B10B522
:1001A000002B03D00349044800E000BF10BDC04647
:1001B000000000005C0000208C1D000870B5FA25CE
:1001C0002724AD000121200000F012FF054801F0B6
:1001D0008DF8280000F078FF0021200000F008FFD3
:1001E000F0E7C046FA1D00080C4B70B505000C0086
:1001F00018680B49FFF776FFFA239B0043432968F1
:1002000000200325013B002B00D128000A68224072
:10021000A24201D0002BF5D170BDC04604000020E1
:10022000204E000070477047704770477047704716
:1002300070470122036810B519680400114205D007
:100240009968114202D05A60FFF7ECFF022223683E
:100250001968114206D09968114203D020005A60F3
:10026000FFF7E1FF042223681968114206D099685C
:10027000114203D020005A60FFF7D6FF08222368FE
:100280001968114206D09968114203D020005A60C3
:10029000FFF7CBFF102223681968114206D0996836
:1002A000114203D020005A60FFF7C0FF20222368CC
:1002B0001968114206D09968114203D020005A6093
:1002C000FFF7B5FF402223681968114206D09968EC
:1002D000114203D020005A60FFF7AAFF10BD0000B2
:1002E000F0B5050085B072B6002304682E4E019368
:1002F000B44205D12D4BDA6CC0231B031A40019286
:10030000A3680293E36861690393A769B44209D1C2
:100310008023264A1B06906A03439362936A5B001C
:100320005B0893620B003B4332D0B44204D11F4AB6
:100330001F48D36C0340D36400290FD001232269E6
:1003400028001343236161610821FFF74DFF032853
:1003500002D12B002E33187008236360002F0ED0BB
:10036000012322691021134323612800A761FFF7AD
:100370003BFF032801D12E35287010236360B4425F
:1003800006D10A4A0A49D36C0B4001990B43D36446
:100390000122236993432361029BA360039BE360D3
:1003A00062B605B0F0BDC046007C004000100240BF
:1003B000FFFFF3FF70B5050002232E352B700400FC
:1003C000FFF78EFF2B78D8B2032B07D022680449A1
:1003D000D36800200B40D36001232B7070BDC04652
:1003E000FFFFF7FF030902000A200F2158430A40CC
:1003F0008018C0B270470000F7B50C0001683F20BC
:100400008B6A63600B690D685B045B0CA360104B27
:100410001D402E0A290CF6B2084033020343019313
:100420004023EDB21940019B2F0409063B430B43C7
:100430002360002A0AD1FFF7D5FF20703000FFF7B4
:10044000D1FF60702800FFF7CDFFA0700020FEBD37
:100450007F7F7F0070B50C0003680E495B680B401E
:10046000180CDD04DEB21B04ED0E5B0FE07065704E
:10047000A6702370002A0AD1FFF7B4FFE0702800AD
:10048000FFF7B0FF60703000FFF7ACFFA0700020F6
:1004900070BDC0463FFFFF000223F0B585B0451C8C
:1004A00002910392EA7F04001800012A5BD0012226
:1004B000E618EA77F3772368C9325A62773A5A62C4
:1004C0009B685B0537D423682B499A68FA270A4052
:1004D0009A60D968294AC9B20A43DA6000F022FB5F
:1004E000BF00019004212368DA680A423DD0029AD5
:1004F00003315A619A688A439A609A6803990A4359
:1005000080219A601E4A4903106808431060906871
:100510000143916080229968D2010A439A60802247
:100520009968D2000A439A60FF2200205A62012390
:10053000F377E87717E000F0F5FAFA270190BF00AB
:1005400004222368DB681342BDD000F0EBFA019B64
:10055000C01AB842F4D9FF22236803205A62032349
:10056000F3770023EB7705B0F0BD00F0DBFA019BD9
:10057000C01AB842B6D9EEE7FFFBFFFF7FFBFFFFD3
:10058000000401400223F7B5451CEA7F040018006F
:10059000012A31D00122E618EA77F3772368C932BD
:1005A0005A62773A5A629A68144904270A409A6054
:1005B0009A6813490A409A6000F0B4FA00902368E0
:1005C000DA681100394001913A4206D0FF2200203A
:1005D0005A620123F377E8770EE000F0A3FA009B5C
:1005E000C01AFA239B009842E9D9FF22032023680E
:1005F0005A62019BF077EB77FEBDC046FFFBFFFF21
:10060000FFBFFFFF70470000036810B5DB68040000
:100610005B0507D5FFF7F6FF2168064BCA68D2B223
:100620001343CB608022044B52035A6101230234EE
:10063000E37710BD7FFBFFFF0004014030B5EFF30F
:100640001084012282F310880168124D0B682B4040
:100650000B6084F31088EFF3108482F31088016834
:100660008B6893438B6084F31088036E93420AD1A6
:10067000EFF3108183F31088102402681368A343FA
:10068000136081F310882023C36700230366436649
:1006900030BDC046DFFEFFFF70477047806A002311
:1006A000020010B55A321380083A1380FFF7F5FFA5
:1006B00010BD7047F7B504000068A74BC169066814
:1006C000856819420BD12023194200D17FE01E42D8
:1006D00000D17CE0636E2000002B6ED16EE0012320
:1006E0002F009E4A1F4032403A4300D16FE0251D43
:1006F000194205D0F20503D50362EA6F1343EB6795
:100700000223194206D0002F04D00362EA6FDB18DF
:100710001343EB670423194206D0002F04D0036271
:10072000EA6F023B1343EB670823194207D02022EC
:1007300032403A4303D00362EA6F1343EB678023EE
:100740001B01194206D0720104D503622023EA6F0F
:100750001343EB67EB6F002B30D02023194206D0F8
:100760001E4204D0636E002B01D0200098472268FF
:10077000EB6F4027966828223E40134020001E431E
:1007800021D0FFF75BFF23689B683B4217D0EFF354
:100790001081012383F3108822689368BB43936020
:1007A00081F31088206F002809D06D4B836300F01F
:1007B000C3FA002802D0206F836B9847F7BD200052
:1007C000FFF76BFFFAE7FFF768FFEE67F6E7236EC8
:1007D000012B00D094E01022114200D190E016428B
:1007E00000D18DE00262816840200D000540014289
:1007F00050D0216F0D68696889B20029DED02600CB
:10080000583636888E42D9D926005A3631802D681E
:1008100020212E000E4001960D422FD1EFF31087BC
:1008200083F3108826684F4A35681540356087F392
:100830001088EFF3108783F310882668B5689D430E
:10084000B56087F31088EFF3108683F3108825686E
:10085000AF688743AF6086F31088019AE16722662C
:10086000EFF3108083F31088102221680B68934304
:100870000B6080F31088206F00F03EFA2300220006
:100880005A3358321B881188C91A89B22000FFF7E1
:1008900010FF93E7260021005A36308836885831F9
:1008A000098880B2002E00D188E7091A89B2002990
:1008B00000D183E7EFF3108783F3108826682A4A74
:1008C00030681040306087F31088EFF3108783F3AF
:1008D00010882668B0689843B06087F3108820209D
:1008E0006566E0672566EFF3108583F3108820685E
:1008F00032320368FF329343036085F31088C5E703
:1009000080235B03194206D06D0204D503622000E8
:1009100000F0FAF852E78023194203D01E4201D0BA
:10092000A36ED8E64022114200D147E7164200D11B
:1009300044E7EFF31080012383F3108821680B68EC
:1009400093430B6080F310882023A36700232000CB
:10095000A366FFF7A1FE31E70F08000020010004A5
:100960009D060008FFFEFFFFDFFEFFFFF8B5040055
:100970000D0017001E002268D3692B405B1B5942F3
:100980004B41BB4201D0002027E0069B0133F3D04E
:1009900000F0C8F8069B801B984201D8002B1DD19F
:1009A000EFF31080012282F3108821681E4D0B683E
:1009B0002B400B6080F31088EFF3108082F31088D7
:1009C00021688B6893438B6080F310882023A36792
:1009D000E3670023032074342370F8BD23681A688A
:1009E0005207C8D58022D96912011142C3D01A62B8
:1009F000EFF31080012282F3108821680A4D0B6802
:100A00002B400B6080F31088EFF3108082F3108886
:100A100021688B6893438B6080F310882023221D0C
:100A2000A367E367D367D4E75FFEFFFFF0B587B046
:100A30000593836F04000D0016000220202B4ED179
:100A4000013800294BD0002A49D08023A2685B01DD
:100A50009A4204D12369002B01D101423FD12700E2
:100A600074373B780220012B39D0012300223B70E0
:100A7000231DDA672123A36700F054F823005033C5
:100A80001E8002331E8003938023A26800260490F8
:100A90005B019A4204D12369B34201D12E001D00AB
:100AA00000233B70230052331B889AB2002B0BD1DA
:100AB000059B402100932000049BFFF757FF00286F
:100AC0000CD12023A3670AE0059B0022009380211C
:100AD0002000049BFFF74AFF002802D0032007B044
:100AE000F0BD2268002D0BD133880236DB05DB0D0B
:100AF0009362039B039A1B88013B9BB21380D1E74F
:100B00002B7801359362F4E770470000034A044BE9
:100B100011681B785B1813607047C0467400002092
:100B200000000020014B18687047C0467400002088
:100B300070B50400FFF7F6FF0500631C02D0044BFC
:100B40001B78E418FFF7EEFF401BA042FAD370BDFC
:100B5000000000200023F0B585B00A681400DC40D6
:100B600001D105B0F0BD012514009D402C4000943A
:100B70002A4200D19CE04A685F0094460322644602
:100B800022400324BC40E4430194541E012C2ED87F
:100B90008668019C2640CC68BC403443846044682D
:100BA0000126AC4325006446240934409C402C4374
:100BB0004460C568019C25408C68BC402C43C460DF
:100BC000022A16D107250F261D40AD00AE40DC08D5
:100BD000A40004190294246A03962600039CA643E9
:100BE00034000E69AE402643029C266201E0032ACF
:100BF000DFD1BA400468019D25402A43C024026029
:100C00006246A402224253D001252A4CA027626BDF
:100C1000FF052A436263284A9C08A400A4180F22F7
:100C200002351D40AD00AA40A66896430022B84296
:100C300014D0224F0132B84210D0214F0132B842B5
:100C40000CD0204F0132B84208D01F4F0132B842B9
:100C500004D01E4A8218571EBA410532AA40674680
:100C60003243A2601A4A009C1668009DE443354353
:100C7000FF0301D435002540674615605668009D86
:100C80003543BF0301D4350025406746556096685B
:100C9000009D3543FF0201D435002540674695602D
:100CA000D568009E2E43BF0201D425402E00D66099
:100CB000013352E7001002400000014000040050E0
:100CC00000080050000C00500010005000E4FFAF7E
:100CD00000040140002A01D0816170478162FCE775
:100CE000044B10B55A69104202D0586100F0CEF999
:100CF00010BDC0460004014030B5841DE27F0300F2
:100D0000022A06D00422C263012000220533DA77CA
:100D100030BD02680E2011681C258143116001213D
:100D20001068884310605A6C186C2A400D0095407A
:100D300045600020E177E8E770B5841DE37F022B72
:100D400003D00423C363012070BD0E2103681C255A
:100D50001A688A431A600122196891431960436C2A
:100D6000016C2B4015009D404D60E2770022431D31
:100D7000DA77836B934200D098470020E4E7F8B518
:100D80001C260427426C016C32403E0096400D68E0
:100D900003681C6835420DD03C420BD01A6892069D
:100DA00002D41A68BA431A60036B4E60002B19D044
:100DB000984717E002273E009640354213D03C4248
:100DC00011D01A68920606D40A241A68A2431A603F
:100DD0000122831DDA770022431D4E60DA77C36A51
:100DE0009342E5D1F8BD0826370097403D42F9D03F
:100DF0003442F7D00E251C68AC431C6001231C0054
:100E00009440821D4C60C363D3770022431DDA7780
:100E1000436BE5E710B5FF2403220B0021000240DD
:100E2000D20091409B012340C943934000280ADB34
:100E3000C0240B4A800880008018A40002590A4090
:100E40001343035110BD0F2210400838054A800893
:100E500080008018C26911401943C161F2E7C046A1
:100E600000E100E000ED00E0002805DB1F23184052
:100E70001E3B8340014A13607047C04600E100E01A
:100E8000704710B5FFF7FCFF10BD7047002808D071
:100E90008368002B05D00F210378024A0B409B008A
:100EA0009850704778000020F0B516000022F0231B
:100EB00082569B0195011D40A0230127DB05ED18FB
:100EC0000F23040038001340984063688FB00A93E2
:100ED000A36801910B9300230C930D93F0339C4670
:100EE0006146099013400A4232D13F4BDA6A3A43D5
:100EF000DA62DB6A3B400393039B6B4681B21A794B
:100F00002800FFF7E7FE09A92800FFF723FE882144
:100F10006268364B490313408B4203D084239B0302
:100F20009A4258D13000FFF7B1FF0023E3560E225A
:100F300019001140134247D001321340023B012BEC
:100F40004BD9002207201100FFF764FF072040E083
:100F5000102B09D10227244BDA6A3A43DA62DB6AA2
:100F60003B400493049BC8E7202B09D104271E4B68
:100F7000DA6A3A43DA62DB6A3B400593059BBCE7D9
:100F8000302B09D10827184BDA6A3A43DA62DB6A58
:100F90003B400693069BB0E7402B09D11027124B2C
:100FA000DA6A3A43DA62DB6A3B400793079BA4E7BD
:100FB000702BA2D180270C4BDA6A3A43DA62DB6AE3
:100FC0003B400893089B98E705200A00FFF722FFA3
:100FD0000520FFF749FF0FB0F0BD002206201100E9
:100FE000FFF718FF0620F4E700100240FFFFDFFFC5
:100FF0007FB501220292002201AB1870481E814188
:101000001800039204920592FFF74EFF07B000BD4F
:1010100010B50120FFF764FE0220FFF761FE10BD4E
:1010200010B50420FFF75CFE0820FFF759FE10BD45
:1010300010B51020FFF754FE2020FFF751FE40208E
:10104000FFF74EFE8020FFF74BFE80204000FFF7A9
:1010500047FE80208000FFF743FE8020C000FFF79E
:101060003FFE80200001FFF73BFE80204001FFF79C
:1010700037FE80208001FFF733FE8020C001FFF79C
:101080002FFE80200002FFF72BFE10BD030010B5DD
:10109000002806D0002302E001334008DBB201281B
:1010A000FAD1054A9B009B58002B04D09A68002A6D
:1010B00001D05868904710BD7800002010B5FFF7A8
:1010C00025FDFFF7DEFE10BD10B5FFF731FD10BDA9
:1010D00070B50C4C0C482500153500F007F92800B8
:1010E00000F004F92000303000F000F9280000F092
:1010F000FDF820004A3000F0F9F8280000F0F6F87A
:10110000FEE7C046A41D0008C51D0008F7B5050090
:101110000C00234F234EBB6A0022290030000193AC
:10112000FFF798F9002221003000FFF765F9BA6A4D
:10113000019B9A42EDD10321EA781B486E78504317
:101140000A40531E9A415342184A013E1340184A1E
:10115000AD789B183D2272437600F3400132D70FE1
:101160000330BA18013D80082818521012180B409D
:10117000D31A104A21785A43E1231B014B433C21E7
:1011800060780D4D41435B18A17864685B189B182B
:10119000990D980200232A1B8018594103B0F0BD15
:1011A00000280040C0000020B50500005055550043
:1011B0005055440080510100FF030000014B586A64
:1011C0007047C046C000002010B503490348FFF730
:1011D0009DFF034B586210BDE8000020FC0000207A
:1011E000C00000207FB5684601A9FFF78FFF024BC2
:1011F0005B6AC01A07B000BDC00000200320704722
:10120000062343434000DB091818704770B5FFF709
:10121000F7FF8023040000255B02984208D30B49A6
:10122000FEF760FF094905002000FEF797FF0C005C
:10123000074B1D60074D2800FFF7A4F90022064B5D
:10124000280021001A70FFF727F970BDFFFF00008A
:10125000B8000020C0000020BC00002010B50C4CDD
:101260002000FFF7D1F90B4A1368002B05D10122AA
:10127000094B1A7000F076F810BD013B2000136096
:10128000FFF780F9002220000449FFF705F9F3E792
:10129000C0000020B8000020BC000020FFFF0000BC
:1012A00010B5074C2000FEF7C4FF2000FFF782F8BE
:1012B000044A5368002B01D01068984710BDC046FF
:1012C000080100200001002000B5C1B00A000100A3
:1012D000684600F0C5F8002806DD6846FEF7F0FE17
:1012E000C1B2684600F00EF841B000BD0FB407B5BA
:1012F00004A901C90191FFF7E7FF03B008BC04B0DE
:101300001847000010B5044C0A000100034B2000F0
:10131000FFF78CFB10BDC046BC010020FFFFFF00A3
:1013200010B50248FFF72BFD10BDC046400200205B
:1013300010B50248FFF7BEF910BDC04638010020C5
:1013400070B50400FFF75AFF01236372050024689B
:10135000FFF748FF201AA84200D22800FFF756FFE7
:1013600070BD0000F8B5FFF729FF0500FFF72CFF5F
:101370001A4C2368002B15D01A00471B5269002A0B
:1013800006D159691A72DA682160002A08D1FEE78D
:1013900011680026B94201D949190E1A1660EDE705
:1013A000186990472368002B03D1206800280ED1CC
:1013B000F8BD1D68FFF716FF8542F6D223685A690B
:1013C000226000221A72DA68002AE9D1FEE7437A25
:1013D000002BEDD1FFF7B4FFEAE7C04688020020FA
:1013E0000D4885460D480E490E4A002302E0D458A8
:1013F000C4500433C4188C42F9D30B4A0B4C00235D
:1014000001E013600432A242FBD3FFF73EFD00F07F
:1014100047F8FEF7D3FEFEE7005000200000002052
:1014200058000020441E000858000020D803002067
:10143000FEE7000000B59BB00091049106490591BC
:10144000029106490391694600F0B0F90022009B21
:101450001A701BB000BDC046FFFFFF7F0802FFFFF0
:1014600010B5044C13000A0001002068FFF7E2FFEA
:1014700010BDC0460800002010B5884206D80023E1
:101480009A4208D0CC5CC4540133F9E78B189842D7
:10149000F5D2013A00D210BD8B5C8354F9E700000D
:1014A00070B500260C4C0D4D641BA410A64209D14A
:1014B000002600F06BFC0A4C0A4D641BA410A642E7
:1014C00005D170BDB300EB5898470136EEE7B30085
:1014D000EB5898470136F2E73C1E00083C1E000816
:1014E000401E00083C1E000870477047002310B5DE
:1014F0009A4200D110BDCC5CC4540133F8E700001F
:1015000070B505000C1E10D0043C2368002B00DAD7
:10151000E418280000F0DAF81D4A1368002B05D102
:1015200063601460280000F0D9F870BDA34208D9A8
:10153000206821188B42F3D119685B680918216073
:10154000EEE71A005B68002B01D0A342F9D91168BD
:101550005018A0420BD1206809185018116083421E
:10156000E0D118685B68411811605360DAE7A04267
:1015700002D90C232B60D5E7206821188B4203D1B8
:1015800019685B680918216063605460CAE7C04647
:10159000D003002070B50F4E0D0031680400002903
:1015A00002D100F091FB30602900200000F08CFB9C
:1015B000431C03D101256D42280070BD0323C51CC7
:1015C0009D43A842F8D0291A200000F07DFB01308D
:1015D000F2D1EFE7CC0300200323F7B5CD1C9D43E8
:1015E000083506000C2D34D20C25A94233D8300022
:1015F00000F06CF8344F3B681C00002C2FD1290000
:101600003000FFF7C7FF0400431C58D13C6821009D
:10161000002949D1002C4CD023683000E3180193F5
:1016200000F052FB019B834243D123683000ED1A46
:101630002900FFF7AFFF01303BD023685B1923601F
:101640003B68002B3DD05A68A24230D100225A603C
:1016500012E0002DC9DA0C2333600020FEBD2168A2
:10166000491B1ED40B2917D962192560A34211D139
:101670003A60636811605360300000F02FF820007A
:1016800007220B30231D9043C21A9842E6D01B1A42
:10169000A350E3E75A60ECE76268A342D7D13A600F
:1016A000EAE723006468A8E70C004968B0E7130084
:1016B000C7E70C233000336000F010F8CDE7056079
:1016C000DAE75B60FFDEC046D003002010B50248B9
:1016D000FFF70AFF10BDC046C803002010B502483E
:1016E000FFF703FF10BDC046C8030020F0B58E68A9
:1016F00085B01F000C000B6802900392BE4230D8E8
:101700000C21625E9021C9000A4228D00320216981
:101710005B1A0193636943430198DD0FED187B1C4D
:101720001B186D10AB4200D91D00520528D52900A9
:101730000298FFF751FF061E2CD0019A2169FFF78E
:10174000D5FEA289184B1A4080231343A381019B25
:101750002661F61826603E006561ED1AA560BE425E
:1017600000D93E00320003992068FFF785FE002073
:10177000A3689B1BA36023689B19236005B0F0BD81
:101780002A00029800F0BDFA061EE0D121690298F5
:10179000FFF7B6FE0C230120029A40421360A28993
:1017A00034331343A381E9E77FFBFFFFF0B5A1B01A
:1017B00003901D008B890F0016001B0611D50B69C5
:1017C000002B0ED14021FFF707FF38603861002859
:1017D00005D10C23039A136001204042CFE040233F
:1017E0007B61002308AC6361203363761033A376FA
:1017F000079535002B78002B01D0252B48D1AB1B4A
:101800000593B5420BD0320039000398FFF76EFF05
:10181000013000D1AEE06369059A9B1863612B78B3
:10182000002B00D1A6E0012200235242626004A9ED
:10183000543252186E1C2360E360A3601370A365DA
:10184000544B052218003178059300F04FFA751CAF
:1018500000281FD12268D30604D5532304A95B189E
:1018600020211970130704D5532304A95B182B21D9
:10187000197033782A2B16D0350000210A20E3682E
:101880002A786E1C303A092A50D9002911D117E064
:101890000135AFE7059B2268C01A0123834013433B
:1018A0002E002360CCE7079B191D1B680791002BB6
:1018B00001DB0B9304E05B42E360022313432360EC
:1018C0002B782E2B0CD16B782A2B34D1079B023529
:1018D0001A1D1B680792002B01DA01235B42099352
:1018E0002D4E03223000297800F000FA002806D09F
:1018F0004023801B834022680135134323602978ED
:10190000062226486E1C217600F0F0F9002838D017
:10191000234B002B22D10722079B07339343083325
:1019200007936369049A9B18636162E74343350038
:1019300001219B18A4E700230A20190001356360E8
:101940002A786E1C303A092A03D9002BC8D0099195
:10195000C6E74143350001238918F1E707AA009241
:1019600021003A000F4B039800E000BF0490049B55
:101970000133D6D1BB890D985B0600D52CE721B089
:10198000F0BD07AA009221003A00064B039800F030
:101990007BF8EBE7091E00080F1E0008131E000865
:1019A00000000000ED160008F7B5160001938A68E4
:1019B0000B690C000090934200DA130022003360A0
:1019C00043321278002A01D00133336023689B062A
:1019D00002D53368023333602268062315001D40A8
:1019E0001A4227D0230043331B785A1E93412268A2
:1019F000920630D4220001990098089D4332A847EE
:101A0000013025D00622236800251340042B05D180
:101A10003368E568ED1AEB43DB171D40A3682269C4
:101A2000934201DD9B1AED180026B54220D100201B
:101A300010E00135E36832689B1AAB42D2DD220028
:101A4000012301990098089F1932B8470130F0D15D
:101A500001204042FEBD3020E118433108702100D2
:101A60005A1C45310978A218433202331170C1E77C
:101A70002200012301990098089F1A32B8470130CB
:101A8000E6D00136D1E70000F0B58BB006920A002F
:101A900043320793059004920A7E0C00109B782A2B
:101AA00009D8622A0BD8002A00D1CEE084490391DC
:101AB000582A00D19FE026004236327022E0100002
:101AC00063381528F7D8FEF703FB16001F00F6FF52
:101AD000F6FFF6FFF6FF1F00F6FFF6FFF6FFF6FF34
:101AE000B3004F008F00F6FFF6FFC400F6FF4F0073
:101AF000F6FFF6FF930026001A684236111D1960A2
:101B0000136833700123B2E018680968021D0D06DE
:101B10001FD505681A606A4A0A2761680392002D7A
:101B200038DA23002D2043331870A160002916DA1B
:101B30000A276D420392049E28003900FEF70EFB2F
:101B4000039B013E5B5C33702B0005009F42F3D981
:101B50002DE005681A604906DDD52DB2DBE70421CA
:101B600023688B432360E3E70D681968081D18603C
:101B70002E0601D50D6803E06D06FBD50D68ADB2EC
:101B80004F4B0A2703936F2A00D1023F2300002204
:101B900043331A706368A360002BCCDB04212268F6
:101BA0008A432260002DC6D1049E002BC3D1082F8A
:101BB00009D12368DB0706D5626823699A4202DCF3
:101BC0003023013E3370049B9B1B2361079B210044
:101BD00000930598069B09AAFFF7E6FE01304BD15A
:101BE000012040420BB0F0BD202209680A43226068
:101BF000782234490391210045310A70196822681E
:101C0000081D1860150601D50D6803E05506FBD5C3
:101C10000D68ADB2D30702D5202313432360002DF6
:101C200001D01027B2E72022236893432360F8E70E
:101C30001A680D68101D4969186013682E0601D5D1
:101C4000196002E06D06FBD519800023049E236114
:101C5000BCE71A68111D196016680021300062681F
:101C600000F044F8002801D0801B606063682361A5
:101C70000023049A1370A9E7320023690699059896
:101C8000079DA8470130ABD023689B0715D4099B5B
:101C9000E0689842A6DA1800A4E72200012306991A
:101CA0000598079E1932B047013099D00135E36895
:101CB000099A9B1AAB42F0DCE9E70025F7E7C0463A
:101CC0001A1E00082B1E0008002370B5064D0400E4
:101CD00008002B6000F04CF8431C03D12B68002B4C
:101CE00000D0236070BDC046C4030020C9B2821872
:101CF000904201D10020704703788B42FBD0013025
:101D0000F6E7F7B506000C001500002905D1110013
:101D1000FFF762FC04002000FEBD002A03D1FFF79C
:101D2000EFFB0024F7E700F01BF80700854202D81C
:101D30004308AB42EFD329003000FFF74DFC019080
:101D40000028EED02A00BD4200D93A0021000198B7
:101D5000FFF7CCFB21003000FFF7D2FB019CDAE754
:101D60000B1F1B68181F002B01DA0B58C018704797
:101D7000044A03001068002802D0C318136070479B
:101D80000148FAE7D4030020D8030020F8B5C04684
:101D9000F8BC08BC9E467047F8B5C046F8BC08BC05
:041DA0009E467047A4
:101DA4004552524F523A206D63755F70616E69639C
:101DB4003A25730A00004552524F523A202D3E20D4
:101DC400004552524F523A201B5B303B33316D0079
:101DD4004552524F523A20484152444641554C5480
:101DE4005F48616E646C65720A004552524F523A04
:101DF400201B5B306D0048656C6C6F20576F726CF4
:101E040064210A0D00232D302B2000686C4C0065E2
:101E14006667454647003031323334353637383912
:101E24004142434445460030313233343536373845
:081E3400396162636465660018
:041E3C009D010008FC
:041E40007501000820
:101E440001000000000020000C0000200000000041
:101E54008C020020F40200205C030020000000003B
:101E6400000000000000000000000000000000006E
:101E7400000000000000000000000000000000005E
:101E8400000000000000000000000000000000004E
:081E9400000000000000000046
:04000005080013E1FB
:00000001FF
