:020000040800F2
:100000000050002005540008555400082D3F0008FA
:1000100000000000000000000000000000000000E0
:10002000000000000000000000000000555400081F
:10003000000000000000000055540008093F0008BF
:100040005554000855540008F5410008555400085F
:1000500055540008F13A0008013B0008113B000824
:100060000000000055540008555400088949000854
:1000700055540008BD460008555400085554000862
:10008000555400085554000855540008000000005D
:10009000555400085554000855540008555400089C
:1000A000555400085554000855540008555400088C
:1000B00099490008555400080000000000000000A5
:1000C00002780B78002A03D0013001319A42F7D030
:1000D000D01A70470023C25C0133002AFBD1581E9E
:1000E0007047000002B4714649084900095C4900A4
:1000F0008E4402BC7047C04603B4714649084000B4
:100100004900095E49008E4403BC704703B4714640
:10011000490840004900095A49008E4403BC704711
:10012000002934D00123002210B488422CD30124AA
:100130002407A14204D2814202D209011B01F8E73F
:10014000E400A14204D2814202D249005B00F8E7F8
:10015000884201D3401A1A434C08A04202D3001B24
:100160005C0822438C08A04202D3001B9C08224357
:10017000CC08A04202D3001BDC082243002803D095
:100180001B0901D00909E3E7100010BC704701B555
:10019000002000F05FF802BD0029F8D003B5FFF79A
:1001A000C1FF0EBC4243891A1847C046002941D0FE
:1001B00010B404004C40A44601230022002900D5BD
:1001C0004942002800D5404288422CD3012424070C
:1001D000A14204D2814202D209011B01F8E7E400E6
:1001E000A14204D2814202D249005B00F8E7884272
:1001F00001D3401A1A434C08A04202D3001B5C08EA
:1002000022438C08A04202D3001B9C082243CC0846
:10021000A04202D3001BDC082243002803D01B09A4
:1002200001D00909E3E710006446002C00D54042E4
:1002300010BC704701B5002000F00CF802BDC046AC
:100240000029F7D003B5FFF7B3FF0EBC4243891A6C
:100250001847C0467047C0468446100062468C4628
:100260001900634600E0C0461FB51AF03DFA0028A9
:1002700001D40021C8421FBD10B51AF08FF94042C9
:10028000013010BD10B51AF02FFA002801DB002054
:1002900010BD012010BDC04610B51AF025FA002887
:1002A00001DD002010BD012010BDC04610B51AF0C0
:1002B000B7F9002801DC002010BD012010BDC046A8
:1002C00010B51AF0ADF9002801DA002010BD0120A8
:1002D00010BDC046002B11D1002A0FD1002900D13A
:1002E000002802D00021C943080007B4024802A137
:1002F0004018029003BDC0465DFFFFFF03B468468F
:1003000001B5029819F07EFB019B9E4602B00CBC21
:100310007047C046D0400B00D1409C46203AD340A5
:10032000184352426346934018437047914003007C
:1003300090409C46203A9340194352426346D34032
:10034000194370471C2101231B04984201D3000C60
:1003500010391B0A984201D3000A08391B09984238
:1003600001D30009043902A2105C40187047C0464E
:10037000040302020101010100000000000000006E
:1003800010B5002903D1FFF7DDFF203002E008009F
:10039000FFF7D8FF10BDC04610B5064C2378002BE0
:1003A00007D1054B002B02D0044800E000BF012319
:1003B000237010BDC803002000000000E4B2010853
:1003C000044B10B5002B03D00349044800E000BFE4
:1003D00010BDC04600000000CC030020E4B20108BC
:1003E00010B5054804F0A8F90122044B04481A701E
:1003F00004F0D8FC10BDC0460DB501080C05002066
:10040000E4030020F0B5C9B00B2606AC6E44310001
:10041000200006F099F961786D4D142900D9D1E0DA
:100420000800FFF75FFE0B272C5058888A8C8ECF70
:1004300090CFCF989A9C9EC7C9CBCD00654804F059
:100440007BF9280004F078F9634C0020210006F0C5
:1004500031F86249002006F009F8013460490020B3
:1004600006F04CF80020E17F06F06CF8002006F062
:10047000EBF823E05B4804F05FF928004AE00C2425
:10048000594804F059F9280004F056F9574804F087
:1004900053F9280004F050F9554804F04DF92800AC
:1004A00004F04AF92200534903A817F0F5F8002296
:1004B00066211000009403AB06F00FF93378002B8F
:1004C000A2D149B0F0BD4C4804F036F9280004F040
:1004D00033F94A48CFE74A4804F02EF9280004F0DF
:1004E0002BF989235B006B44464F1A78464D08A9C7
:1004F00038002A7017F0D0F8E179444804F01CF96C
:100500002A784349434804F017F900242B78A34282
:1005100003D8414804F010F9D0E70F231C4204D15E
:10052000002C02D03C4804F007F9395D3B4804F048
:1005300003F90134EAE73A489DE73A489BE73A482D
:1005400099E73A4897E73A4804F0F6F8280004F0AB
:10055000F3F838488FE738488DE738488BE7384854
:1005600089E7384804F0E8F8280004F0E5F8237932
:10057000354C012B08D1354804F0DEF8280004F092
:10058000DBF80023236099E7314804F0D5F8280010
:1005900004F0D2F8216801312160092900D88DE7E3
:1005A0002C4804F0C9F8280004F0C6F8002006F032
:1005B00089F85BE728485EE728485CE728485AE75F
:1005C000284858E7284B180004F0B6F855E7C0460D
:1005D0003CDE010820B501081C080020240800208A
:1005E0002C0800203EB501085CB501087BB5010868
:1005F00098B50108D8B80108BAB50108D9B50108FD
:10060000F4B50108040400200004002015B6010818
:1006100030B6010841B601086AC7010854B601089E
:100620005AB601087DB601089DB60108BAB60108A0
:10063000DDB60108FEB601081BB7010838B701088E
:1006400064B7010889B70108FC030020ACB70108B2
:10065000CBB70108E4B7010817B801083EB8010894
:1006600068B8010897B80108BEB8010830B585B070
:1006700003F0C3FA03F0D4FA704804F05DF8704850
:1006800004F05AF86F49704804F056F801AC6F490D
:100690006F4805F01DFE200005F088FE04F02EFCDA
:1006A00004F04EFCA378627821786A4804F044F89C
:1006B000694D280004F040F80822002102A816F035
:1006C0004AFFC221654C664BFF31C02261622100A6
:1006D0002360002312062C3162600B70012204217A
:1006E0002000E363A360A3632261E3602384A36229
:1006F00061612363A3616263E36102F023FC00286C
:100700000ED05849584804F017F8280004F014F89F
:10071000564804F011F8280004F00EF803F072FABD
:10072000534B20000293802302A95B01039302F044
:10073000E7FD00280ED04B494B4803F0FDFF280091
:1007400003F0FAFF494803F0F7FF280003F0F4FF35
:1007500003F058FA0021272003F03EF9012121205F
:1007600003F03AF90021102003F036F900210320AC
:1007700003F032F9012300220221112003F03CF999
:10078000012300220221122003F036F903F037FA88
:10079000384C3949200004F0FBFA2000374904F0B6
:1007A0009BFB0021200004F0FBFA200004F0FAFA81
:1007B00002A9002004F07CFE6B466A466946FA24D2
:1007C0005B89527A097A2E4803F0B6FFA40003F041
:1007D000D3FC05F0D7FD2B4B1A78002A01D000225C
:1007E0001A7005F0CFFD03F0D1FA272003F059F974
:1007F000010001281CD1212003F040F9002127200D
:1008000003F03CF9112003F04CF9002801D0012835
:1008100001D11D4B1860122003F043F9002801D0CC
:10082000012801D1194B1860200003F07BFBCEE7B3
:100830000021212003F022F90121E0E7E4B80108BA
:1008400036B901084BB9010852B90108050400087E
:10085000D4EE01085DB901083CDE01081005002056
:1008600000240140C8EE010884B9010835C601081A
:1008700020000014E4030020E1030008204E0000E3
:1008800099B901080C050020040500200805002086
:1008900070B504000120002C3FD0250041352B7895
:1008A000DAB2002B05D12300403320001A7004F087
:1008B00039F9242301212B702368E0681A68A6689F
:1008C0008A431A601A4962680A401A619A6819498B
:1008D0000A409A60012821D18022120232439A6094
:1008E0005868154A02435A60DA6800200A40DA6004
:1008F000616922690A43A16909020A43DA60216A2F
:10090000E2690A431A60012219680A431A60202327
:1009100060642B7020634234207070BD8422120208
:1009200032439A600228DBD1802212015A60D7E755
:10093000FFFFFFF0FF7FFFFF0080000270B50400A3
:100940000120002C13D02500242341352B70226870
:10095000136883431360200004F080F90020230013
:10096000606442332870206340341870207070BD7A
:10097000F0B504004134227803000F000220D6B203
:10098000202A18D11D0040352A78012A13D02422AC
:1009900022701B68233A1968074891431960196847
:1009A00001400020196019683943196019680A4329
:1009B0001A6026702870F0BDFFEFFFFF0200F0B54F
:1009C000413214780300E5B20220202C17D11C001C
:1009D00040342678012E12D0223010701B68233844
:1009E0001E68074F86431E601E6809023E40314361
:1009F0001960196808431860002015702070F0BD58
:100A0000FFF0FFFF0C4B70B505000C0018680B4998
:100A1000FFF786FBFA239B00434329680020032548
:100A2000013B002B00D128000A682240A24201D0DD
:100A3000002BF5D170BDC04608000020204E0000FC
:100A4000F7B504000120002C44D025002E352B786A
:100A5000DAB2002B05D123002D3320001A7003F0E9
:100A600041FE02232B7026686168F368A06A0129A1
:100A700003D080221204904201D11E229343626966
:100A8000184FBA4201D0184F3B40184F1F40A3687F
:100A900001979C460B00674603431F43236A3B4371
:100AA000676A3B43019F3B43002914D1E1692769F1
:100AB00039430B438021090488420ED009498A42F8
:100AC00004D0A1690A43E1690A431343F360012397
:100AD00000202B70FEBD0129ECD1E16820690143A3
:100AE0000B43EBE7FFFF00003F1FFFFFFEF119FF85
:100AF00070477047704770477047704770470122D2
:100B0000036810B519680400114205D099681142B4
:100B100002D05A60FFF7ECFF0222236819681142E5
:100B200006D09968114203D020005A60FFF7E1FF18
:100B3000042223681968114206D09968114203D033
:100B400020005A60FFF7D6FF082223681968114277
:100B500006D09968114203D020005A60FFF7CBFFFE
:100B6000102223681968114206D09968114203D0F7
:100B700020005A60FFF7C0FF202223681968114245
:100B800006D09968114203D020005A60FFF7B5FFE4
:100B9000402223681968114206D09968114203D097
:100BA00020005A60FFF7AAFF10BD0000F0B5050055
:100BB00085B072B6002304682E4E0193B44205D16D
:100BC0002D4BDA6CC0231B031A400192A3680293D9
:100BD000E36861690393A769B44209D18023264A77
:100BE0001B06906A03439362936A5B005B089362FF
:100BF0000B003B4332D0B44204D11F4A1F48D36C90
:100C00000340D36400290FD0012322692800134335
:100C1000236161610821FFF7F5FE032802D12B0053
:100C20002E33187008236360002F0ED00123226931
:100C30001021134323612800A761FFF7E3FE032877
:100C400001D12E35287010236360B44206D10A4AC0
:100C50000A49D36C0B4001990B43D36401222369E9
:100C600093432361029BA360039BE36062B605B0DC
:100C7000F0BDC046007C004000100240FFFFF3FFC3
:100C800070B5050002232E352B700400FFF78EFF90
:100C90002B78D8B2032B07D022680449D3680020F0
:100CA0000B40D36001232B7070BDC046FFFFF7FFE0
:100CB000F7B50700019202222E373A7080220B000E
:100CC0001B4904000868920502430A6080222568D7
:100CD0000126E96812030A431021EA602A6920000C
:100CE00032432A616960AB61FFF78CFE032801D1B2
:100CF0000320FEBD0821019B696020006B61FFF7A6
:100D000081FE0328F4D02000FFF750FF3B78032B2F
:100D1000EED0236800209A6832439A601A69324301
:100D20001A61042219690A431A613E70E1E7C0465C
:100D30000004014070B5050002230D4A2E352B70CA
:100D400013680C4904000B401360FFF72FFF2B784A
:100D5000D8B2032B0AD023680749DA6800200A407A
:100D60000121DA609A688A439A60297070BDC04692
:100D700000040140FFFFFFDFFFFFF7FFA021026833
:100D8000F8B5D36804008B43D36001F01DF8FA274F
:100D900005002026BF002368DB68334201D0002015
:100DA000F8BD01F011F8401BB842F4D90320F7E771
:100DB000F8B5402603680400DA68324201D000200A
:100DC000F8BD01225242DA6000F0FEFFFA2705006A
:100DD000BF002368DB683342F1D100F0F5FF401B10
:100DE000B842F6D90320EBE7F8B5041E19D0861CEB
:100DF000F37FDAB2002B03D1431CDA7703F01CFA3D
:100E00000223CA22F377236820005A62773A5A6293
:100E1000FFF7CEFF2368051E06D0FF225A62042387
:100E2000F37701252800F8BD9A681C4920690A401B
:100E30009A60626899680243A06902430A439A6013
:100E4000E26860691A61A268196912040A43802184
:100E50001A61DA688A43DA60DA6C7D398A43DA64C7
:100E6000E269D96C02430A43DA649A6820231700C6
:100E70001F401A420CD12000FFF780FF002807D046
:100E8000FF22236801345A620423F377E777C8E727
:100E9000FF2223685A620123F377C3E7BFFF8FFF66
:100EA0000023092803D81B011843C0B270470A3831
:100EB0000133C0B2F5E70000F0B5431C85B00193E3
:100EC0000C00D97F022305001F00012936D0012123
:100ED0004018C177E918CB7702912F68207866789F
:100EE0003E33002A2DD1BA68110019401A4200D1B0
:100EF000E170FFF7D5FF03903000FFF7D1FF060048
:100F0000A078FFF7CDFFE378039A1B040343120494
:100F1000134336021E43CA237B62773B7B62280061
:100F2000FFF746FF2B68071E19D0FF225A620423E1
:100F3000029AD3770023019AD3770127380005B0AE
:100F4000F0BDBA68110019401A4200D1E170A378CF
:100F50000004360206431E43E3781B04DAE7174A0F
:100F6000174916401E609A6820690A409A60E26834
:100F7000996802430A4380219A60DA688A43DA60FA
:100F80009A68202314001C401A420DD12800FFF754
:100F9000F5FE002808D0FF222B685A620423029A2B
:100FA000D377019BDC77C8E7FF222B685A620123C5
:100FB000029AD3770023019AD377BFE77F7F7F0020
:100FC000FFFFFBFF0223F0B5471C0D00F97F040073
:100FD0001E0085B0012924D00121F977C118CB77F3
:100FE0000191A9782E78E8786B7876030291002A2F
:100FF0001AD00004304308431D02CA222368054367
:101000005A62773A5A622000FFF7D2FE2368061E22
:1010100020D0FF225A620423019AD3770023FB7762
:101020000126300005B0F0BD1022134202D09343D8
:101030000A336B70FFF734FF03906878FFF730FFD7
:1010400005000298FFF72CFF039B30431B04184355
:101050002D02D2E78021114A15405D60DA688A438B
:10106000DA609A68202315001D401A420CD1200036
:10107000FFF784FE002807D0FF2223685A6204236A
:10108000019AD377FD77CBE7FF2223685A620123C9
:10109000019AD3770023FB77C3E7C0463FFFFF00E9
:1010A000030902000A200F2158430A408018C0B2E9
:1010B00070470000F7B50C0001683F208B6A636041
:1010C0000B690D685B045B0CA360104B1D402E0A7E
:1010D000290CF6B208403302034301934023EDB2DA
:1010E0001940019B2F0409063B430B432360002A50
:1010F0000AD1FFF7D5FF20703000FFF7D1FF6070F5
:101100002800FFF7CDFFA0700020FEBD7F7F7F008D
:1011100070B50C0003680E495B680B40180CDD04C9
:10112000DEB21B04ED0E5B0FE0706570A6702370DD
:10113000002A0AD1FFF7B4FFE0702800FFF7B0FFE4
:1011400060703000FFF7ACFFA070002070BDC0469B
:101150003FFFFF000223F0B585B0451C02910392CA
:10116000EA7F04001800012A5BD00122E618EA7722
:10117000F3772368C9325A62773A5A629B685B05F3
:1011800037D423682B499A68FA270A409A60D968AD
:10119000294AC9B20A43DA6000F016FEBF00019086
:1011A00004212368DA680A423DD0029A03315A6169
:1011B0009A688A439A609A6803990A4380219A60E0
:1011C0001E4A49031068084310609068014391600B
:1011D00080229968D2010A439A6080229968D200DD
:1011E0000A439A60FF2200205A620123F377E877CE
:1011F00017E000F0E9FDFA270190BF000422236800
:10120000DB681342BDD000F0DFFD019BC01AB8427D
:10121000F4D9FF22236803205A620323F3770023C3
:10122000EB7705B0F0BD00F0CFFD019BC01AB842CE
:10123000B6D9EEE7FFFBFFFF7FFBFFFF0004014095
:101240000223F7B5451CEA7F04001800012A31D0BB
:101250000122E618EA77F3772368C9325A62773AAF
:101260005A629A68144904270A409A609A68134996
:101270000A409A6000F0A8FD00902368DA68110027
:10128000394001913A4206D0FF2200205A620123E0
:10129000F377E8770EE000F097FD009BC01AFA2381
:1012A0009B009842E9D9FF22032023685A62019BE0
:1012B000F077EB77FEBDC046FFFBFFFFFFBFFFFFF0
:1012C00070470000036810B5DB6804005B0507D5B4
:1012D000FFF7F6FF2168064BCA68D2B21343CB6012
:1012E0008022044B52035A6101230234E37710BD7C
:1012F0007FFBFFFF00040140022210B5411CCC7FA0
:1013000003001000012C10D09818C2771B68C83257
:101310005A62773A5A629C68333A22439A60FF22B3
:101320005A620123C3770020C87710BDF8B50400C6
:101330000120002C54D0636A002B52D182226168B4
:101340005200914200D0E36100232500A362513591
:101350002B78DAB2002B05D12300503320001A700D
:1013600002F0F4FF02264022822084272E7021689A
:1013700040000B683F0293430B606368A26903401F
:10138000A068384080270343E0683F0138400343AA
:1013900020693827304003436069013E30400343F1
:1013A0008020800010400343E069120C3840034362
:1013B000206A4837384080270343A06ABF0138407D
:1013C00003430B60042310201A40636A034000208B
:1013D0001A434A60CB69054A1340CB6160652E70A1
:1013E000F8BD002323616361AEE7C046FFF7FFFF4E
:1013F00070B504000120002C10D0250002234021EC
:1014000051352B7022682000136850348B431360D1
:1014100003F052F8002060602870207070BD00005A
:1014200030B5EFF31084012282F310880168124D69
:101430000B682B400B6084F31088EFF3108482F369
:10144000108801688B6893438B6084F31088036E67
:1014500093420AD1EFF3108183F3108810240268BD
:101460001368A343136081F310882023C36700230C
:101470000366436630BDC046DFFEFFFF70B5040063
:101480000120002C14D024230025A36723681A68A8
:1014900082431A6020001D605D609D6003F038FA91
:1014A0002800231DDD67A567E56725667434257070
:1014B00070BD70477047806A0023020010B55A3231
:1014C0001380083A1380FFF7F5FF10BD7047000046
:1014D000F7B504000068A74BC16906688568194222
:1014E0000BD12023194200D17FE01E4200D17CE0C5
:1014F000636E2000002B6ED16EE001232F009E4A08
:101500001F4032403A4300D16FE0251D194205D0FB
:10151000F20503D50362EA6F1343EB670223194216
:1015200006D0002F04D00362EA6FDB181343EB6789
:101530000423194206D0002F04D00362EA6F023B55
:101540001343EB670823194207D0202232403A4365
:1015500003D00362EA6F1343EB6780231B01194238
:1015600006D0720104D503622023EA6F1343EB67B0
:10157000EB6F002B30D02023194206D01E4204D03E
:10158000636E002B01D0200098472268EB6F402744
:10159000966828223E40134020001E4321D0FFF7CA
:1015A0003FFF23689B683B4217D0EFF31081012374
:1015B00083F3108822689368BB43936081F310889B
:1015C000206F002809D06D4B836301F0EBFA0028EF
:1015D00002D0206F836B9847F7BD2000FFF76AFFAA
:1015E000FAE7FFF767FFEE67F6E7236E012B00D0FF
:1015F00094E01022114200D190E0164200D18DE01B
:101600000262816840200D000540014250D0216FE8
:101610000D68696889B20029DED026005836368800
:101620008E42D9D926005A3631802D6820212E00CD
:101630000E4001960D422FD1EFF3108783F31088EF
:1016400026684F4A35681540356087F31088EFF3F8
:10165000108783F310882668B5689D43B56087F3CB
:101660001088EFF3108683F310882568AF688743EE
:10167000AF6086F31088019AE1672266EFF310806D
:1016800083F31088102221680B6893430B6080F36A
:101690001088206F01F066FA230022005A33583276
:1016A0001B881188C91A89B22000FFF70FFF93E742
:1016B000260021005A36308836885831098880B291
:1016C000002E00D188E7091A89B2002900D183E7EA
:1016D000EFF3108783F3108826682A4A3068104099
:1016E000306087F31088EFF3108783F31088266843
:1016F000B0689843B06087F3108820206566E06783
:101700002566EFF3108583F3108820683232036872
:10171000FF329343036085F31088C5E780235B03A2
:10172000194206D06D0204D50362200000F0CCFA05
:1017300052E78023194203D01E4201D0A36ED8E69F
:101740004022114200D147E7164200D144E7EFF3AF
:101750001080012383F3108821680B6893430B608A
:1017600080F310882023A36700232000A366FFF7DF
:10177000A0FE31E70F08000020010004B7140008A4
:10178000FFFEFFFFDFFEFFFFF8B504002569A1683B
:10179000026829436569C369294310686F4D19437D
:1017A00028400143116051686D486E4D0140E0686A
:1017B00001435160A069AA4201D0216A084391689F
:1017C000694E31400143916068498A4214D1032136
:1017D0008020674A0002D26C0A40022A00D179E0D8
:1017E0008A4200D19DE0012A00D193E0834200D1DA
:1017F0009AE000F087FE63E05E498A4217D10C212F
:101800005B4AD26C0A40082A00D190E00AD8002A2C
:1018100059D180221202934250D100F063FE031E80
:1018200047D061E00C2A00D179E0012042E0524922
:101830008A42EED051498A42EBD0AA42F5D1C0216A
:1018400080204B4A0901D36C00010B4083420AD02F
:1018500004D8002B29D100F045FE28E08B42E4D1CA
:101860008020000206E01068454BC006C0171840F3
:10187000444BC0180323626853439842D5D31303E3
:101880009842D2D80021070E0602500836184F4160
:101890000B0030003900FEF71DFD3B4BC2183B4BDF
:1018A0009A42C2D82368D86003E000F0B5FA002855
:1018B000E0D1002000236366A366F8BD00F012FEAD
:1018C0000028F6D03FE080221202934224D100F09B
:1018D000A3FAA4E783422ED1254B294A1B68DB06D5
:1018E000DB171340274A9B1861685B0048081818EB
:1018F000FEF716FC264982B2103A03048A4200D948
:1019000093E70F221B03904380B222685B0F1843BA
:10191000D060CEE78342DAD000F07EFAD0E78020B4
:1019200000028342E0D00EE000F0ECFD77E7802279
:1019300012029342D0D00E4B1868114BC006C0174C
:101940001840104BC01861684B081818FEF7E8FBE8
:1019500080B202000E4B103AA2E7C046F369FFEFD7
:10196000FFCFFFFF00480040FFF4FFFF00380140B9
:101970000010024000440040004C00400050004075
:1019800000E548FF0024F40000FDFFFFFFFC0F000E
:10199000EFFF0000436A30B5DA0706D50168284C2E
:1019A0004A682240846A22434A609A0706D5016841
:1019B000244C4A682240C46A22434A605A0706D52A
:1019C0000168214C4A682240046B22434A601A078E
:1019D00006D501681D4C4A682240446B22434A6088
:1019E000DA0606D501681A4C8A682240846B2243C5
:1019F0008A609A0606D50168164C8A682240C46B34
:101A000022438A605A0610D50168134D4A68046C57
:101A10002A4022434A6080225203944205D14A68F8
:101A20000E4C2240446C22434A601B0606D50268D5
:101A30000B4953680B40816C0B43536030BDC0466B
:101A4000FFFFFDFFFFFFFEFFFFFFFBFFFF7FFFFF2D
:101A5000FFEFFFFFFFDFFFFFFFFFEFFFFFFF9FFF36
:101A6000FFFFF7FFF8B504000D0017001E00226805
:101A7000D3692B405B1B59424B41BB4201D0002034
:101A800027E0069B0133F3D000F09EF9069B801BF4
:101A9000984201D8002B1DD1EFF31080012282F370
:101AA000108821681E4D0B682B400B6080F3108856
:101AB000EFF3108082F3108821688B6893438B606A
:101AC00080F310882023A367E36700230320743486
:101AD0002370F8BD23681A685207C8D58022D969D7
:101AE00012011142C3D01A62EFF31080012282F377
:101AF000108821680A4D0B682B400B6080F310881A
:101B0000EFF3108082F3108821688B6893438B6019
:101B100080F310882023221DA367E367D367D4E7EF
:101B20005FFEFFFFF0B587B00593836F04000D00E3
:101B300016000220202B4ED1013800294BD0002A5C
:101B400049D08023A2685B019A4204D12369002B0B
:101B500001D101423FD1270074373B780220012B8D
:101B600039D0012300223B70231DDA672123A367AC
:101B700000F02AF9230050331E8002331E800393A5
:101B80008023A268002604905B019A4204D1236955
:101B9000B34201D12E001D0000233B7023005233BD
:101BA0001B889AB2002B0BD1059B4021009320008B
:101BB000049BFFF757FF00280CD12023A3670AE0FE
:101BC000059B0022009380212000049BFFF74AFF21
:101BD000002802D0032007B0F0BD2268002D0BD1F1
:101BE00033880236DB05DB0D9362039B039A1B8867
:101BF000013B9BB21380D1E72B7801359362F4E768
:101C000073B500260400031DDE6700F0DDF82368CD
:101C100005001B681B0716D423681B685B070AD5E1
:101C200080210F4B0022009320002B00C903FFF7F7
:101C300019FF002812D120230020A367E367206644
:101C4000743420700BE08021054B3200009389032F
:101C500003002000FFF706FF0028DDD0032076BD3B
:101C6000FFFFFF0110B5041E01D1012010BD836FDD
:101C7000002B04D102007432137002F0B1FD242352
:101C800001212268A367136820008B431360FFF7CC
:101C90007BFD0128E9D0636A002B02D02000FFF70A
:101CA00079FE236807495A6820000A402A215A60B1
:101CB0009A688A439A60012219680A431A60FFF7FA
:101CC0009FFFD3E7FFB7FFFF7047000070B5040028
:101CD0000120002C16D02368124A07261A60124AE7
:101CE0001A6062685A60A2689A6000F06DF8050098
:101CF0002368DA68324206D11969E26891420DD050
:101D00001A61002070BD00F05FF8401B2A28EFD94F
:101D10002368DB683342EBD00320F3E7034A1A6001
:101D2000EFE7C046CCCC000055550000AAAA000041
:101D30000368024A00201A607047C046AAAA000041
:101D400070B50500FA200D4B80001978FEF7E8F910
:101D50000B4C01002068FEF7E3F901F01DF80400C8
:101D60000120002C09D1032D07D8023822002900B8
:101D700000F0CCFF2000034B1D6070BD0000002070
:101D800008000020040000204023084A10B5116814
:101D900000200B431360FFF7D3FF041E03D102F0B2
:101DA000B9F8200010BD0124FBE7C0460020024026
:101DB000034A044B11681B785B1813607047C046D8
:101DC0006C05002000000020014B18687047C046D9
:101DD0006C05002070B50400FFF7F6FF0500631CDA
:101DE00002D0044B1B78E418FFF7EEFF401BA04223
:101DF000FAD370BD000000200221024A13688B4311
:101E00001360704710E000E00223024A11680B43A0
:101E10001360704710E000E00C221E4B70B5DC68C8
:101E20002240082A34D00C2A0CD0042A28D1186861
:101E30001023184043425841174B40421840174B5B
:101E4000C01870BDA2021648120F805C80222402C6
:101E5000D968A40F52020134114209D0114A00235B
:101E6000002117F0ADFD22000023FEF733FAE8E76A
:101E70001A6810231A4201D0084AF0E70A4AEEE72E
:101E800080205B6800021B045B0F01339840D8E799
:101E90000448D6E700100240001BB70000093D00CF
:101EA0000CF0010800127A000024F400F0B50500DF
:101EB00085B0002855D00C23C04C0268E668E7685E
:101EC0001E4080235B0219001F40D2073DD42B68BF
:101ED0009B0700D586E02B68DB0628D5002E00D0B6
:101EE000DFE023689B0502D5AB69002B39D0802742
:101EF0006268B3492B6A0A401A435B0B01333F0205
:101F00009F4062606168EA690902090A12060A4391
:101F10006260E168AB480B061B0FC35CAA4ADF4056
:101F2000AA4B17601868FFF70BFF002830D12B6809
:101F30001B0700D5ECE02B685B0700D50EE16B6A50
:101F4000002B00D093E1002022E0082E03D00C2EBD
:101F500009D1002F07D023689B03B8D56B68002BED
:101F6000B5D1012014E06A688A4213D12268134374
:101F70002360FFF729FF009080222368920213421A
:101F8000A5D1FFF721FF009BC01A6428F4D90320D4
:101F900005B0F0BDA021C9028A4205D18022216886
:101FA000D2020A432260E1E72168894801402160AA
:101FB00021680B400393039B864923680B402360F1
:101FC000002AD6D1FFF700FF0090802223689202FA
:101FD000134200D17BE7FFF7F7FE009BC01A64288D
:101FE000F3D9D4E72022EB68134203D0216893434E
:101FF00011432160042E03D00C2E24D1002F22D1B6
:102000002268520701D5002BABD061682A6972485B
:10201000120201400A430921626022688A43134385
:102020002360FFF7F9FEE368664A1B061B0FD35CCB
:102030006549D840654B08601868FFF781FE0028A5
:1020400000D148E7A4E7002B19D0092122688A4370
:1020500013432360FFF7B8FE0700042223681342EE
:1020600007D062682B695C491B020A401343636016
:1020700031E7FFF7A9FEC01B0228EED987E701224E
:10208000236893432360FFF79FFE07000422236821
:10209000134200D11FE7FFF797FEC01B0228F5D9B6
:1020A00075E7AB69002B20D0802322685B001343C7
:1020B0002360FFF789FE0700802223689200134205
:1020C0000DD063683E4A13402A6A13436360626816
:1020D000EB6912021B06120A1343636027E7FFF73E
:1020E00073FEC01B0228E7D951E723683B4A13401F
:1020F0002360FFF769FE07008022236892001342E5
:1021000000D114E7FFF760FEC01B0228F4D93EE7B8
:102110006A690123002A10D0226D13432365FFF75B
:1021200053FE07000222236D134200D003E7FFF79E
:102130004BFEC01B0228F5D929E7226D9A43226580
:10214000FFF742FE07000222236D134200D1F2E6A0
:10215000FFF73AFEC01B0228F5D918E780230021BB
:10216000A26B5B0500911A4204D1A26B1343A363D7
:102170000123009380221A4F52003B68134208D07B
:102180008022AB68520093422CD1226D1343236509
:102190004DE080223B68520013433B60FFF714FE82
:1021A000019080223B6852001342E9D1FFF70CFEF8
:1021B000019BC01A6428F4D9E9E6C0460010024029
:1021C000FF1FFFFF20F0010808000020040000208E
:1021D000FFFFFEFFFFFFFBFFFFE0FFFFFFFEFFFF34
:1021E00000700040002B16D1236D514A1340236527
:1021F000236D504A13402365FFF7E6FD0700802258
:10220000236D920013421AD0FFF7DEFD4A4BC01B2C
:102210009842F4D9BBE6A021C9008B4218D1802393
:10222000216DDB000B432365236D1A432265FFF705
:10223000CBFD07008022236D9200134210D0009B3B
:10224000012B00D07BE6A36B3C4A1340A36376E6E8
:10225000236D374A13402365236D364A134096E7B2
:10226000FFF7B2FD344BC01B9842E3D98FE60C2E2A
:1022700043D0334A022B2ED123688027134023609A
:10228000FFF7A2FD0600BF0423683B421DD1E96AA7
:10229000AB6AE2680B432B4980260A4013432A6B42
:1022A000B6041343E360802322685B041343236076
:1022B000FFF78AFD05002368334200D043E6FFF7AD
:1022C00083FD401B0228F6D961E6FFF77DFD801BE8
:1022D0000228D9D95BE62368802613402360FFF7E4
:1022E00073FD0500B6042368334200D12BE6FFF7E7
:1022F0006BFD401B0228F6D949E6012B00D130E6E0
:102300008023E068AA6A5B020340934200D028E67B
:10231000F023EA6A9B030340934200D021E6C023E6
:102320001B0418402B6BC01A431E9841C0B22FE605
:10233000FFFEFFFFFFFBFFFF88130000FFFFFFEF23
:10234000FFFFFFFEFFFF02FFF7B5041E019101D161
:102350000120FEBD01255B4E019A33682B4093425C
:1023600031D32268930743D4D20749D40125336877
:10237000019A2B40934209D93368AB433360FFF78E
:1023800023FD070033682B4200D08CE022684E4DBD
:10239000530700D58FE0120706D5EA6823694B4939
:1023A000DB000A401343EB60FFF736FDEB68484A59
:1023B0001B061B0FD35C4749D840474B0860186881
:1023C000FFF7BEFCC5E73368019AAB4313433360A4
:1023D000FFF7FAFC07003368019A2B409342C0D004
:1023E000FFF7F2FC3D4BC01B9842F4D90320B0E745
:1023F000F0203549CB688343A0680343CB60B3E743
:10240000314D62682B68022A18D19B03A0D50321A5
:10241000EB688B431343EB60FFF7D6FC6368070060
:10242000022B18D10C22EB681340082B9ED0FFF72B
:10243000CBFC2A4BC01B9842F4D9D7E7032A02D120
:102440009B01E4D484E7012A02D15B07DFD47FE754
:102450009B05DCD47CE7032B0BD10C22EB681340EB
:10246000934283D0FFF7B0FC1C4BC01B9842F4D9B9
:10247000BCE7012B11D00C22EB68134200D175E7A9
:10248000FFF7A2FC154BC01B9842F4D9AEE7FFF74B
:102490009BFC124BC01B9842A8D80C22EB6813403F
:1024A000042BF4D162E7FFF78FFC0C4BC01B984262
:1024B00000D867E79AE7EB6809490B40E1680B43EE
:1024C000EB6068E70020024000100240FFC7FFFFFA
:1024D00020F00108080000200400002088130000FC
:1024E000FFF8FFFF044B054ADB6805495B055B0FFE
:1024F000CB5C1068D84070470010024008000020F4
:1025000018F00108044B054ADB6805499B045B0F82
:10251000CB5C1068D84070470010024008000020D3
:1025200018F001081F230360224B10B51A685203EC
:1025300039D480211A6849020A400121E02442600E
:102540001A6824020A40C2605A68D204D20E02619C
:102550001A68120A0A4082615A68120EC2615A68E9
:10256000224002621A6D520520D41A6D120A0A40E6
:102570001202012182601A6D0A4042611A68D2017A
:10258000D20F521880214262DA6849020A40F021D3
:102590008262DA6889030A40C262C022DB681204E0
:1025A0001340036310BDA022D202C6E7A022D200CE
:1025B000DFE7C046001002400F2310B5032403607C
:1025C0000B4BDA6822404260DA68ED342240E024A6
:1025D0008260DA68E4002240C2600122DB68DB0826
:1025E00023400361034B1B6813400B6010BDC046C2
:1025F00000100240002002400368F7B505009B066A
:102600003BD580230021584C5B05A26B00911A42F8
:1026100004D1A26B1343A363012300938027534E7D
:102620007F0033683B425AD0686822680100C023AB
:102630004240C0209B0280031940024260D1226DBB
:10264000100018401A4262D16968C0230A009B0238
:102650001A409A4207D1236845480340C0208003AE
:1026600001400B432360236D1A43009B2265012B1D
:1026700003D1A36B3F4A1340A3632B68DA0706D547
:1026800003203949CA6C8243A8680243CA649A0786
:1026900006D50C203449CA6C8243E8680243CA64F8
:1026A0005A0706D530493448CA6C024028690243AB
:1026B000CA641A0706D52C493048CA6C02406869BA
:1026C0000243CA64DA0506D527492D48CA6C024080
:1026D000A8690243CA641B063ED400200FE0336899
:1026E0003B433360FFF770FB019033683B429BD163
:1026F000FFF76AFB019BC01A6428F6D90320FEBDD0
:1027000099429CD122680120920398D5F7E788422C
:102710009AD02B689B0697D58021236D206D0903E5
:1027200001432165216D164A16481A400140216572
:102730002265DB0500D487E7FFF746FB802706000C
:10274000BF00236D3B4200D07EE7FFF73DFB0E4B01
:10275000801B9842F5D9D1E7034A0C49D36C0B4052
:10276000E9690B43D364B8E70010024000700040F1
:10277000FFFFCFFFFFFFFFEFFFF3FFFFFFCFFFFFE5
:10278000FFFFFCFFFFFFF7FF88130000FFFFF3FFD1
:102790000122084B0020596811420AD0EFF3108142
:1027A00072B60548D8600548D86081F3108858682B
:1027B0001040704700200240EFCDAB8905040302B2
:1027C0000123034A002051680B4353607047C04601
:1027D000002002400023F0B585B00A681400DC40F8
:1027E00001D105B0F0BD012514009D402C4000949E
:1027F0002A4200D19CE04A685F0094460322644666
:1028000022400324BC40E4430194541E012C2ED8E2
:102810008668019C2640CC68BC4034438460446890
:102820000126AC4325006446240934409C402C43D7
:102830004460C568019C25408C68BC402C43C46042
:10284000022A16D107250F261D40AD00AE40DC0838
:10285000A40004190294246A03962600039CA6434C
:1028600034000E69AE402643029C266201E0032A32
:10287000DFD1BA400468019D25402A43C02402608C
:102880006246A402224253D001252A4CA027626B43
:10289000FF052A436263284A9C08A400A4180F225B
:1028A00002351D40AD00AA40A66896430022B842FA
:1028B00014D0224F0132B84210D0214F0132B84219
:1028C0000CD0204F0132B84208D01F4F0132B8421D
:1028D00004D01E4A8218571EBA410532AA406746E4
:1028E0003243A2601A4A009C1668009DE4433543B7
:1028F000FF0301D435002540674615605668009DEA
:102900003543BF0301D435002540674655609668BE
:10291000009D3543FF0201D4350025406746956090
:10292000D568009E2E43BF0201D425402E00D660FC
:10293000013352E700100240000001400004005043
:1029400000080050000C00500010005000E4FFAFE1
:1029500000040140F0B500220F0085B03B00D340D9
:1029600001D105B0F0BD012393401C0001933C4010
:102970001F425AD02E4B032591088900C9180F23F6
:102980001540AD00AB408E6802931E400396A02612
:102990000023F605B04218D0264B9C460123604523
:1029A00013D0254B9C46022360450ED0234B9C46FA
:1029B0000323604509D0224B9C460423604504D084
:1029C000204BC3185E1EB3410533AB40039DAB42A1
:1029D00010D11D4B1D68A5431D605D68A5435D605A
:1029E0009D68A5439D60DD68A543DD608B68029C02
:1029F000A3438B60032451008C4007210F26114014
:102A000089008E400368019923430360D3089B002B
:102A1000C3181D6AB5431D62C368A343C3604368FE
:102A20008B4343608368A3438360013296E7C046CB
:102A3000000001400004005000080050000C00504D
:102A40000010005000E4FFAF00040140006908409E
:102A5000431E9841C0B27047002A01D0816170477F
:102A60008162FCE7044B10B55A69104202D05861EC
:102A700001F07CF810BDC04600040140F8B5040028
:102A80000120002C35D025681A4B1421E818FDF7D9
:102A900047FB194B800023640223A21D6064D37797
:102AA0002E68164BA1681E40E36827690B433B4321
:102AB00067693B43A7693B43E7693B43276A3B435D
:102AC00033432B608023DB0199420CD01C25284026
:102AD0000D3D85400A490B68AB430B6063680D6888
:102AE00083402B430B6000200123E0630534D37740
:102AF000E077F8BDF8FFFDBF000002400F80FFFF48
:102B0000A800024070B5012504002800002C21D047
:102B1000266814213368AB4333600F4BF018FDF780
:102B2000FFFA1C21830063640B4000209D400D3997
:102B300099400A4AA31D226430605560084D2A68F6
:102B40008A432A60E06220636063A063E063053427
:102B5000D877E07770BDC046F8FFFDBF00000240A7
:102B6000A800024030B5841DE27F0300022A06D08F
:102B70000422C263012000220533DA7730BD0268E7
:102B80000E2011681C2581431160012110688843C3
:102B900010605A6C186C2A400D009540456000206A
:102BA000E177E8E770B5841DE37F022B03D00423AF
:102BB000C363012070BD0E2103681C251A688A4377
:102BC0001A600122196891431960436C016C2B4013
:102BD00015009D404D60E2770022431DDA77836B3C
:102BE000934200D098470020E4E7F8B51C2604275C
:102BF000426C016C32403E0096400D6803681C68D0
:102C000035420DD03C420BD01A68920602D41A68A5
:102C1000BA431A60036B4E60002B19D0984717E037
:102C200002273E009640354213D03C4211D01A682C
:102C3000920606D40A241A68A2431A600122831D50
:102C4000DA770022431D4E60DA77C36A9342E5D1FA
:102C5000F8BD0826370097403D42F9D03442F7D0FE
:102C60000E251C68AC431C6001231C009440821D8F
:102C70004C60C363D3770022431DDA77436BE5E7EB
:102C80008023034A5B0011680B4313607047C04602
:102C900000700040194BF0B51E680500802034001C
:102CA0000127174A8000126A04403A40064205D0C4
:102CB000002A03D01868134E3040186003261868A5
:102CC000B0432843042518600F4806693543056161
:102CD00001290ED130BF04250169A9430161002CEF
:102CE00006D0002A04D08022196892000A431A6094
:102CF000F0BD40BF20BF20BFEDE7C04600700040E0
:102D000000000140FFFDFFFF00ED00E010B5FF24D3
:102D100003220B0021000240D20091409B0123407E
:102D2000C943934000280ADBC0240B4A8008800076
:102D30008018A40002590A401343035110BD0F220A
:102D400010400838054A800880008018C269114088
:102D50001943C161F2E7C04600E100E000ED00E088
:102D6000002805DB1F2318401E3B8340014A1360E7
:102D70007047C04600E100E0002809DB1F2318402F
:102D80001E3B8340034AD367BFF34F8FBFF36F8F60
:102D90007047C04604E100E08022431E5204012037
:102DA00093420DD2C021074A07485360036A0906BF
:102DB0001B021B0A0B430362002007239060136071
:102DC0007047C04610E000E000ED00E0704710B52D
:102DD000FFF7FCFF10BD0000084B13B504000849C5
:102DE0001868FDF79DF944430194019B002B00D125
:102DF00013BD019B013B0193F7E7C046080000208B
:102E000040420F000422036870B599680400114223
:102E100001D1002070BD9968114206D09A689207CE
:102E200003D4102299680A439A60FEF7CDFF042666
:102E3000050023689B683342EBD0FEF7C5FF401BBB
:102E40000A28F6D923689B683342F2D01023012068
:102E5000626D13436365A36D0343A365DAE7032142
:102E6000026870B5936804000B40012B01D000206C
:102E700070BD10681842FAD0052095680540012DF4
:102E80001BD102239068034393601160FEF79CFFFF
:102E9000060023689B682B42E9D0FEF795FF801B54
:102EA0000A28F6D923689B682B42F2D01023626D62
:102EB00013436365A36D2B4305E01022616D0A4344
:102EC0006265A26D13430120A365D1E70321036866
:102ED00070B59A6804000A40012A04D119681142A9
:102EE00001D0002070BD9968154A114209D0102305
:102EF000626D134363650123A26D13430120A36533
:102F0000F0E701259A6828002A439A60FFF764FFDA
:102F1000FEF75AFF060023681B682B42E1D1FEF73B
:102F200053FF801B0A28F6D923681B682B42F2D175
:102F30001023626D13436365A36D2B43DEE7C04628
:102F40001700008070B5041E16D0436D002B05D10C
:102F5000020050328365137000F058FC636DDB068D
:102F600003D423689A68520708D51023626D503441
:102F70001343636000232370012070BD616D564AC6
:102F800011400632FF320A436265032299681140FC
:102F9000524A012902D11868084219D18025616876
:102FA000ED0548004008A84203D080200006814279
:102FB00076D1186980008008186118690143196189
:102FC0001820D9688143D960D968A0680143D960C5
:102FD0001168434801401160616B10684906014364
:102FE0001160802299685205114202D199680A4302
:102FF0009A60DA683B49256B0A40DA60621CD17F2F
:10300000E268D8682A430243A06980030243E0696A
:10301000C00302434803024320002C3000784000E4
:103020000243206902384542684180000243C220C1
:10303000DA60626AFF30824204D0A56AD8682A4307
:103040000243DA60A21CD27F012A06D1002933D1C3
:103050008022D96852020A43DA60E16B1A690129B9
:1030600032D12148656C02401A61226C18692A43EA
:10307000A56C2A4302431A611A6911431961072199
:103080005A6900208A435A615A69A16B0A435A61FE
:103090000323A065626D9A43023B134363656CE7AB
:1030A0001869124D8000800818611068284010606F
:1030B00010680143116083E72021606D0143616561
:1030C000A16D0A43A265C8E701210A42D7D01A6957
:1030D0008A431A61D3E7C046FDFEFFFF082701407F
:1030E000FFFFFFFD1902FEFF03FCFFFFFFFFC3FF11
:1030F00070B504000125002811D00223426D13434E
:103100004365FFF77FFE051E37D12000FFF7A7FEBE
:103110000500012805D10125002350342370280023
:1031200070BD01236365236815495A6820000A4071
:103130005A60144A14491A609A680A409A60DA6818
:1031400012490A40DA601A6911490A4007211A61D6
:103150005A698A435A611A6A0E490A407F211A62E3
:10316000B4331A688A431A601A688A431A6000F0F6
:1031700057FB0023A3656365CEE70128D3D1CAE7D7
:1031800060F7FFFF9F080000FFFFFFEF00023E8394
:1031900002FCFF3F00F000F0036870B59B6804007C
:1031A00002205B071AD4250050352B78012B15D04F
:1031B00001232B70E369012B11D1626D0B4B0020B1
:1031C0001A4080235B0013431C226365A0652870AE
:1031D00023681A609968183A0A439A6070BD200003
:1031E000FFF774FE0028E8D0F8E7C046FEF0FFFFC6
:1031F00070B506005036337804000220012B12D03F
:10320000012520003570FFF7FDFD002809D12000C1
:10321000FFF725FE002804D1636D034A13401D43C8
:1032200065650023337070BDFEFEFFFFF8B545698C
:1032300004000E00082D0DD003680120DB680C256A
:10324000034207D02023626D503413436360002390
:103250002370F8BDFEF7B8FD070023681A68154211
:1032600023D08022616D92000A436265C022D96832
:103270001201114214D1621CD27F002A10D11A68A7
:1032800012070DD59A68520727D40C215A688A4331
:103290005A60616D174A11400432FF320A43626579
:1032A000A269002A22D00020D3E7721CD6D0002EBB
:1032B0000DD12A0023681B681A401D42CDD104237A
:1032C000616D50340B43636003202270C1E7FEF749
:1032D0007BFDC01BB042ECD8BFE72022616D0A43E2
:1032E00062650122A16D0A43A265D9E70C221A602A
:1032F000D9E7C046FEFEFFFF0368186C7047000068
:10330000F8B504005034227803000220012A0BD0C3
:10331000013820701A6895686D0706D52022596D0E
:103320000A435A6500232370F8BD802380260D6868
:10333000194F49686803DB02400B2B40B602B942C3
:1033400018D0916A01439162002B08D08023134A60
:103350001B0411680A200B431360FFF73DFD354243
:1033600005D080230D4ADB0311680B431360002056
:103370002070D9E7916A81439162002B04D0074AFB
:10338000074913680B4013603542F0D0034A0549E2
:1033900013680B40EAE7C04601100000082701400F
:1033A000FFFF7FFFFFFFBFFF406D7047F8B50500CF
:1033B00050352B7804000220012B47D00123032233
:1033C0002B70236898681040012809D11A680242BE
:1033D00006D02023626D1343636500232B7035E014
:1033E000616D1B4A11400632FF320A4303216265B8
:1033F000DE68DA688A43DA608022996812060A4336
:103400009A60FEF7E1FC070023689A68002A0BDB4C
:103410000321DA680E401643DE600123626D00204E
:103420008A4313436365D8E7FEF7CEFCC01B0A2826
:10343000EAD923689B68002BE6DA1223626D01202B
:103440009A43023B1343636500232B70F8BDC046CB
:10345000FDFEFFFF10B500F0D5FB10BD10B500F06C
:1034600076FE10BD10B500F072FE10BD0020704752
:1034700010B500F081FE10BD10B500F06FFE10BD5C
:1034800010B500F06BFE10BD07B5019169460092C2
:1034900001F0E4F807BD10B501F0FEF810BD10B55D
:1034A00000F0E1FA01F005F910BD10B500F0D0FA16
:1034B00001F0FAF810BD000010B503280ED8FCF793
:1034C00011FE0206080A0E4800F0CAF910BD0D48A8
:1034D000FAE70D48F8E7C0200001F5E70B490C4872
:1034E00001F02AF90B4C200001F026F90A4801F0FE
:1034F00023F9200001F020F900F084FBE6E7C04644
:103500002C0D0000C80C0000640C0000EDEF010859
:1035100084B901083CDE010835C6010810B503284E
:103520000ED8FCF7DFFD0206080A0E4800F082F90B
:1035300010BD0D48FAE70D48F8E7C0200001F5E797
:103540000B490C4801F0F8F80B4C200001F0F4F89E
:103550000A4801F0F1F8200001F0EEF800F052FB0B
:10356000E6E7C0462C0D0000C80C0000640C00000B
:10357000D0EF010884B901083CDE010835C6010816
:1035800010B5034B01002022180014F085F810BD7F
:10359000F92F002010B52022014914F07DF810BD4C
:1035A000F92F0020014B18707047C046F82F0020FB
:1035B000014B1878C0B27047F82F002010B501F009
:1035C00019FA10BD10B501F02AFA10BD10B50200AD
:1035D0000124044B18001C709A60596000F04AF9ED
:1035E00010BDC0467005002010B5012000F06CFA37
:1035F00010BD7047704705207047FE20704710B51A
:1036000000F072F800F0DAF8040000F0F7F820009B
:1036100010BD10B500F068F800F0BCF8040000F030
:10362000EDF814212000FCF77BFDC0B210BD012095
:1036300070470FB407B504A901C9019101F06AF8F8
:1036400003B008BC04B0184770B50D000400FFF7C4
:1036500097FF0122044B21001A7004482A00FFF74B
:10366000E8FF00F0CFFA70BDF82F0020C4B90108C0
:103670007047000037B5194D194A1A4B04006946C6
:10368000280000920193FFF73BFE002802D000249F
:1036900020003EBD802369465B0128000094019311
:1036A000FFF72EFE0028F2D12800FFF775FD002855
:1036B000EDD10A212800FFF7B9FD041EE7D128004B
:1036C000FFF772FE800503D52800FFF715FE84B2D0
:1036D0002800FFF78DFD0028DAD0D8E77C05002010
:1036E000FFFF070001100000C22170B5234B244CDE
:1036F000FF312360C0236162BE39FF391B0661615F
:1037000021000122636000232C312000E360A360CC
:103710002261A3622384A3610B70E3632363A36329
:103720006263E361FFF70EFC00280FD015491648CD
:1037300001F002F8154D280000F0FEFF144800F0DB
:10374000FBFF280000F0F8FF00F05CFA00212000E9
:10375000FFF72CFE00280FD00A490B4800F0ECFFC1
:103760000A4C200000F0E8FF094800F0E5FF2000C7
:1037700000F0E2FF00F046FA70BDC04600240140B0
:103780007C05002030F0010884B901083CDE010806
:1037900035C6010810B50648FFF76CFF054B010060
:1037A0001B8805485843FCF7BBFC80B210BDC046DF
:1037B000000002447800F81FB80B000070B5FFF756
:1037C000E9FF04000948FFF755FF094B6043094929
:1037D0001D88FCF7A5FC431B64205843064B198841
:1037E000491BFCF7E3FC1E3040B270BD00000448EA
:1037F0007A00F81FB80B00007E00F81F10B50248D1
:10380000FFF776FC10BDC0467C0500208023034AEC
:103810009B00516B0B4353637047C046001002403E
:10382000024A0349536B0B40536370470010024038
:10383000FFFDFFFFF8B506000F0015000024FEF79E
:10384000A7FFAC4203D1FEF7BBFF2000F8BD034940
:103850003A5DA3195B181A700134F2E700000808FA
:10386000030010B508000249591813F015FF10BDE8
:1038700000000808002808D08368002B05D00F211D
:103880000378024A0B409B0098507047D8050020EF
:10389000F0B516000022F02382569B0195011D40D1
:1038A000A0230127DB05ED180F2304003800134087
:1038B000984063688FB00A93A36801910B9300232B
:1038C0000C930D93F0339C466146099013400A42D5
:1038D00032D13F4BDA6A3A43DA62DB6A3B40039308
:1038E000039B6B4681B21A792800FFF7B5F809A946
:1038F0002800FEF76FFF88216268364B49031340AA
:103900008B4203D084239B039A4258D13000FFF7A7
:10391000B1FF0023E3560E2219001140134247D095
:1039200001321340023B012B4BD90022072011002A
:10393000FFF7ECF9072040E0102B09D10227244BB8
:10394000DA6A3A43DA62DB6A3B400493049BC8E7D5
:10395000202B09D104271E4BDA6A3A43DA62DB6A6C
:103960003B400593059BBCE7302B09D10827184B3A
:10397000DA6A3A43DA62DB6A3B400693069BB0E7B9
:10398000402B09D11027124BDA6A3A43DA62DB6A1C
:103990003B400793079BA4E7702BA2D180270C4BD9
:1039A000DA6A3A43DA62DB6A3B400893089B98E79D
:1039B00005200A00FFF7AAF90520FFF7D1F90FB09B
:1039C000F0BD002206201100FFF7A0F90620F4E761
:1039D00000100240FFFFDFFF7FB5012202920022AC
:1039E00001AB1870481E81411800039204920592A1
:1039F000FFF74EFF07B000BDF0B58FB0009113493F
:103A00000500080001921A0005AB9C46D0C8D0C33F
:103A100000681031186002AB1800D0C9D0C06446ED
:103A2000019909A889000959057041600099890028
:103A3000CB5883600023C36003619A4200D01570A5
:103A40000021FFF725FF0FB0F0BDC04600B301080D
:103A500010B50520FFF784F90620FFF781F907204C
:103A6000FFF77EF910BD10B50520FFF785F9062098
:103A7000FFF782F90720FFF77FF910BD4B1E994130
:103A80000F23CAB2012103409940F02380019B011A
:103A90001840A02310B5DB0589B2C018FEF7DCFF83
:103AA00010BD0F23012103409940F02380019B01A9
:103AB0001840A023DB0510B5C01889B2FEF7C6FF79
:103AC000431E984110BD0000C0230E21074A5B0031
:103AD000084207D00131084002384021012802D9AC
:103AE000802100E02021D1507047C04600E100E075
:103AF00010B50120FEF7B6FF0220FEF7B3FF10BDA0
:103B000010B50420FEF7AEFF0820FEF7ABFF10BD96
:103B100010B51020FEF7A6FF2020FEF7A3FF4020DF
:103B2000FEF7A0FF8020FEF79DFF80204000FEF7FB
:103B300099FF80208000FEF795FF8020C000FEF7EF
:103B400091FF80200001FEF78DFF80204001FEF7ED
:103B500089FF80208001FEF785FF8020C001FEF7ED
:103B600081FF80200002FEF77DFF10BD030010B52D
:103B7000002806D0002302E001334008DBB2012810
:103B8000FAD1054A9B009B58002B04D09A68002A62
:103B900001D05868904710BDD805002000B585B009
:103BA0000190019A13005B019B1A9B009B18DB009C
:103BB00089211800FCF7FAFA03000293002303930B
:103BC00003E0C046039B01330393039A029B9A428E
:103BD000F7D3C046C04605B000BDC0460122014B28
:103BE0001A70704718060020EFF31083036072B656
:103BF0007047036883F31088704772B6704762B6E7
:103C00007047000072B6BFF34F8F034B034ADA6070
:103C1000BFF34F8FC046FDE700ED00E00400FA055A
:103C2000F0B59DB0FEF7B0F8342200210EA813F0D5
:103C300092FC4F4C14220021684613F08CFC202289
:103C4000002106A813F087FCFFF71AF8236D494AF4
:103C50000225134023650E2380220E930123520078
:103C600010921193012310221292139300231893A0
:103C700080231B03199380230EA81B0417951A9306
:103C8000FEF714F9002812D03B4C3C4925002000D7
:103C9000153500F051FD280000F04EFD20001630D3
:103CA00000F04AFD280000F047FDFFF7ABFF0F22B0
:103CB0000323002600270490012168460092019307
:103CC00002960397FEF740FB0028DDD1C0231B03BB
:103CD0000D938023AB225B020B9006A808960997F0
:103CE00006920793FEF788FC061ECDD18023A26BB7
:103CF0005B051343A3638023E2681B021343E36065
:103D000001210420FFF768FE330032003100072054
:103D1000FFF772FE0122330010002900FFF76CFE4E
:103D200001212220FFF758FE00F012FD00F05CFC9C
:103D30001A2328001E221F2100F090FA00F080F9BB
:103D400000F04CFE16221921012000F079FE142209
:103D500013231521012000F081FA0949094801F0D7
:103D600017F8094B1E7000F01FFE1DB0F0BDC046D5
:103D700000100240FFE7FFFF1CB301084CF00108F0
:103D8000DD3B00081C06002018060020F0B50400EA
:103D900097B0002805DD544D2B78022B03D100236A
:103DA0002B7017B0F0BD00F011FE2B78002BF8D16E
:103DB00001254E4B4E4900938C4256DD4D4B0098E9
:103DC000E41801F089F80023019300264A4F009877
:103DD0003E7000F0E7FFFEF70FF872B609A8FFF794
:103DE00003FF022000F090FA00F0E4FC280000F04D
:103DF0008FFE280000F088FA29002800FEF74AFF0D
:103E0000099B83F3108802A8FFF7EEFE310014220D
:103E100004A813F0A0FB3100342209A813F09BFB87
:103E20008023364A0396916B5B050B4309A8936385
:103E3000FEF778FB099609A802361296FEF736F8C7
:103E4000002818D02E4C2F4925002000153500F0F1
:103E500073FC280000F070FC2000163000F06CFCB1
:103E6000280000F069FCFFF7CDFE2100009801F06A
:103E700033F80195A9E703A904A8FEF79DFB0122E9
:103E80000323039904A804920593FEF75DFA002822
:103E9000D8D100F05DFC28001622192100F0D0FDD9
:103EA000280013231422152100F0D8F91A231E220A
:103EB0001F21300000F0D2F9029B83F3108862B614
:103EC000FDF7A2FF00F082FD3B78002B03D0019BA1
:103ED000002B00D16DE73B78002B00D061E7034851
:103EE00000F0CCFF5DE7C046340600201C06002031
:103EF000204E0000E0B1FFFF180600200010024035
:103F00001CB301083DF0010810B5FDF751FFFEF7A5
:103F10005EFF10BD0022012010B511004042FEF7E7
:103F2000F5FE10BD10B5FDF755FF10BD70B50C4C7A
:103F30000C482500153500F0FFFB280000F0FCFBC5
:103F40002000303000F0F8FB280000F0F5FB2000E6
:103F50004A3000F0F1FB280000F0EEFBFEE7C0461F
:103F60001CB301083DB30108F7B505000C00234F51
:103F7000234EBB6A0022290030000193FDF7C8F8E8
:103F8000002221003000FDF795F8BA6A019B9A42A1
:103F9000EDD10321EA781B486E7850430A40531E46
:103FA0009A415342184A013E1340184AAD789B1873
:103FB0003D2272437600F3400132D70F0330BA1826
:103FC000013D80082818521012180B40D31A104ACD
:103FD00021785A43E1231B014B433C2160780D4D6E
:103FE00041435B18A17864685B189B18990D98028F
:103FF00000232A1B8018594103B0F0BD002800405F
:1040000040060020B50500005055550050554400AD
:1040100080510100FF030000014B586A7047C04601
:104020004006002010B503490348FFF79DFF034BEE
:10403000586210BD680600207C0600204006002063
:1040400030B51F221C4C1D4BA260236000231C4A6C
:1040500087B020006360E26023616361A361E36174
:10406000FCF7C2FE00280FD01649174800F064FB89
:10407000164D280000F060FB154800F05DFB28009D
:1040800000F05AFBFFF7BEFD124B694600222000EC
:104090000093FCF797FF002201A9200002920192F1
:1040A00005920492FCF708FF2000FDF725F9FFF7C1
:1040B000B9FF07B030BDC0464006002000280040D0
:1040C000FF03000060F0010884B901083CDE01082C
:1040D00035C60108010101007FB5684601A9FFF757
:1040E00043FF024B5B6AC01A07B000BD40060020C8
:1040F0000320704710B50348FDF7A2F80022024BD9
:104100001A6010BD40060020380600208205054BCD
:10411000920D5343FA22800A920050439B0A1818CA
:104120007047C0461027000070B586B0060001A990
:104130006846FFF719FF04008005800D0D00FFF7AA
:10414000E5FFAD053080A00A284306B070BD07B575
:104150006B46981DFFF7E8FF0EBD000013B56B46D8
:104160009C1D2000FFF7E0FF024B434320881818F6
:1041700016BDC0461027000010B5FFF7EFFF0A215B
:10418000FBF7CEFF10BD10B5410E7D220023C0010C
:10419000FCF7A0F810BD062343434000DB091818C4
:1041A0007047000070B5FFF7F6FF8023040000257C
:1041B0005B02984208D30B49FBF7B2FF094905009F
:1041C0002000FBF7E9FF0C00074B1D60074D28009E
:1041D000FDF736F80022064B280021001A70FCF784
:1041E000B9FF70BDFFFF0000380600204006002028
:1041F0003C06002010B50C4C2000FDF763F80B4A7C
:104200001368002B05D10122094B1A7000F0F8FD4C
:1042100010BD013B20001360FDF712F800222000C2
:104220000449FCF797FFF3E740060020380600201A
:104230003C060020FFFF00008023074ADB02116DCF
:1042400010B50B431365002211000220FEF75EFD3E
:104250000220FEF785FD10BD00100240F7B5602575
:10426000471E7D43224E0193A85974196060822035
:1042700080234000A0609B000020E361F13BFF3BF6
:104280002362009200230022E06020616061A0614F
:1042900060621848281802604360072020632000ED
:1042A0005C3001702100009B5D310B700435019B77
:1042B0005E34A8192370FDF739F800280FD00E4995
:1042C0000E4800F039FA0E4C200000F035FA0D4887
:1042D00000F032FA200000F02FFAFFF793FC602381
:1042E0007B43F6184023726811680B431360F7BDD7
:1042F00010000020380000208FF0010884B9010868
:104300003CDE010835C60108602310B5434302486E
:104310001818FDF76DF810BDB4FFFF1F602330B50E
:10432000022401384343084A9B589D682542FCD02B
:10433000C9B2197360234343D358012299681142CB
:10434000FCD0187BC0B230BD10000020F0B5544C3A
:104350000368226887B0934230D15C250C2200218B
:1043600003A8655713F0F7F80223012202930133E3
:10437000049323000F2011005D331B7816000340C7
:1043800099400B0029005E3401408E402178334370
:1043900001408A4013430193F023A8019B01184078
:1043A000A023DB05C01801A9FEF714FA80233D4ABB
:1043B0005B01516B0B43536307B0F0BD226E934218
:1043C0005DD10221374EF022F36A01200B43F362E4
:1043D000F36A92010B400093009B2300BC331B78CF
:1043E00007005BB29D011540A022029101310491AA
:1043F0000C31D20519408F40AD18002205210392DF
:1044000001971A2B04D0223BDBB298425241510053
:104410002800059101A9FEF7DDF90121BD220F2336
:104420000800A25613409840052301901A2A05D08F
:104430000023223AD2B291425B418B40280001A96D
:104440000593FEF7C7F90121BE220F230800A256EB
:1044500013409840052301901A2A05D00023223AE0
:10446000D2B291425B418B40280001A90593FEF72F
:10447000B1F98023B26BDB011343B3639CE70A49B4
:104480000A4800F059F90A4C200000F055F9094893
:1044900000F052F9200000F04FF9FFF7B3FB8BE773
:1044A00010000020001002407FF0010884B90108CC
:1044B0003CDE010835C60108F0B5414C03682268AE
:1044C00087B0934238D100253E4A3F49536B03A839
:1044D0000B4053633D4B0C225D57F023AD019B0114
:1044E0001D40A0230021DB05ED1813F034F8032351
:1044F0000126029323000F2732005D331B7828002A
:104500003B409A4001A90192FEF764F90023320072
:104510000293023303932D4B5E341B783B409A4049
:104520001300227828003A40964001A933430193B2
:10453000FEF750F907B0F0BD226E93422ED1002550
:10454000204A2349936B03A80B409363214B0C2211
:104550005D57F023AD019B011D40A0230021DB0529
:10456000ED1812F0F8FF03230126029323000F2712
:104570003200BD331B7828003B409A4001A90192CC
:10458000FEF728F900233200029302330393114B04
:10459000BE341B783B409A401300C2E70E490F48D7
:1045A00000F0CAF80E4C200000F0C6F80D4800F0EC
:1045B000C3F8200000F0C0F8FFF724FBBAE7C046BC
:1045C0001000002000100240FFEFFFFF6C000020F1
:1045D000FFBFFFFFCC0000206DF0010884B9010887
:1045E0003CDE010835C6010880221448144B70B522
:1045F000002400250360002312018260114A046236
:104600004562436042618362FCF71AFA00280FD0CA
:104610000D490E4800F090F80D4C200000F08CF889
:104620000C4800F089F8200000F086F8FFF7EAFA5D
:104630000022094B1A605A6070BDC04688060020EF
:10464000007C0040FFFF00009CF0010884B90108D5
:104650003CDE010835C6010880060020FA2200234E
:1046600010B592000C00410DC002FBF733FE802311
:1046700002005B02984200D3044A04490448FCF754
:1046800017FB044B03CC03C310BDC046FFFF000063
:10469000880600208006002010B50248FCF74AFB7F
:1046A00010BDC0468806002010B50D20FEF758FB4F
:1046B00010BD10B50D20FEF75FFB10BD10B5074C07
:1046C0002000FCF71CFA2000FCF7DAFA044A5368D1
:1046D000002B01D01068984710BDC0468806002006
:1046E00080060020094B026810B59A420DD1802344
:1046F000074A1B06916B0D200B43936300221100A8
:10470000FEF704FB0D20FEF72BFB10BD007C0040E4
:104710000010024000B5C1B00A000100684612F066
:10472000FBFE002806DD6846FBF7D4FCC1B26846F4
:1047300000F048F841B000BD0FB407B504A901C9A5
:104740000191FFF7E7FF03B008BC04B01847000071
:104750001248134B10B50360E1235B02082243604B
:10476000002342618360C36003618361C3610362AC
:104770004362FDF777FA00280FD00A490A48FFF78D
:10478000DBFF0A4C2000FFF7D7FF0948FFF7D4FFF3
:104790002000FFF7D1FFFFF735FA10BD3C070020DE
:1047A00000380140BFF0010884B901083CDE01086F
:1047B00035C6010810B50248FCF760FE10BDC046C2
:1047C0003C07002010B5044C0A000100034B2000F8
:1047D000FDF7A8F910BDC0463C070020FFFFFF0011
:1047E00070B50368414A050088B093421FD180220A
:1047F0003F4BD201596BA0200A4301215A63DA6A68
:10480000C0050A43DA62DB6AC0220B400093009BBA
:10481000042306930223D20002920393002203236F
:1048200002A904920593FDF7D5FF08B070BD314A87
:10483000934249D180222E4B9202996BA0200A43C9
:1048400001219A63DA6A04260A43DA62DB6A0C22DF
:104850000B400193019B0223029203930022032346
:10486000C00502A9049205930696FDF7B3FF224CFA
:10487000224B80222360002320006660A360E36057
:1048800022616361A361E3612362FEF7F7F8002808
:104890000FD01B491B48FFF74FFF1B4E3000FFF79F
:1048A0004BFF1A48FFF748FF3000FFF745FFFFF7BF
:1048B000A9F900221C2011002C67A562FEF726FA38
:1048C0001C20FEF74DFAB0E70D490E48FFF734FF04
:1048D0000D4C2000FFF730FF0C48FFF72DFF2000A4
:1048E000FFF72AFFFFF78EF99FE7C0460038014027
:1048F0000010024000440040C00700205800024061
:10490000AEF0010884B901083CDE010835C6010893
:104910000368174A10B5934211D1164A1649536BD2
:10492000A0200B408021C00589005363FEF712F8D8
:104930008021A020C900C005FEF70CF810BD0F4A69
:104940009342FBD1A0200B4A0D49936BC0050B404D
:1049500093630421FDF7FEFFA0200821C005FDF7A9
:10496000F9FF0848FEF7CEF81C20FEF705FAE5E748
:104970000038014000100240FFBFFFFF004400402C
:10498000FFFFFDFFC007002010B50248FEF72DF91C
:1049900010BDC046C007002010B50248FCF798FDC6
:1049A00010BDC046B80600200548064B10B5036090
:1049B00006234360044BC3608360FDF787F910BD95
:1049C0000808002000300040FF0F000010B502482A
:1049D000FDF7AEF910BDC0460808002007B5042257
:1049E000034901A812F058FE019811F08DFF07BD90
:1049F0003D08002070B505000C00884207D801343E
:104A000011F0B2FF611BFBF7C7FB481970BD11F035
:104A1000ABFF291B0131FBF7BFFB0819F6E770B5A7
:104A200005000C00884205DC091A0020FFF7E2FFB0
:104A3000281870BD411A0020FFF7DCFF2018F8E7A6
:104A400070B55424013844432B4D012660592B196D
:104A500058602A48043498600020D86058619861F2
:104A6000D861186258621800641950301E610170D4
:104A7000513320001A70FBF70BFF00280FD020499C
:104A80002048FFF759FE204D2800FFF755FE1F482C
:104A9000FFF752FE2800FFF74FFEFFF7B3F80021A3
:104AA0002000FBF765FF00280FD015491548FFF7D8
:104AB00043FE154D2800FFF73FFE1448FFF73CFE6C
:104AC0002800FFF739FEFFF79DF800212000FBF7D3
:104AD00075FF00280FD00A490A48FFF72DFE0A4C3F
:104AE0002000FFF729FE0948FFF726FE2000FFF708
:104AF00023FEFFF787F870BDD0000020BB7C70005C
:104B0000ECF0010884B901083CDE010835C6010853
:104B1000542310B5434302481818FBF70FFF10BD8C
:104B200080000020F0B5474C0368226887B09342AC
:104B300044D12300F02250331B7892015BB29D01D7
:104B40001540A0220121D205AD18002208000392D1
:104B5000123202920F3A04920C321A409040042210
:104B60000190192B06D00332212B03D00A00082B09
:104B700000D10632280001A90592FDF72BFE012184
:104B800051220F230800A25613409840042301909D
:104B9000192A06D00333212A03D00B00082A00D19A
:104BA000063301A928000593FDF714FE8023264A49
:104BB0009B03916B0B43936307B0F0BD2200A832B7
:104BC000126893422CD10023F9200125205603932B
:104BD000123302930F3B049304330F260593030013
:104BE0002A003340F0279A40A023BF018001DB0553
:104BF0003840C01801A90192FDF7ECFDF8202056BD
:104C0000A0230640B5408001DB053840C01801A94B
:104C10000195FDF7DFFD80230B4ADB05916BC9E7AA
:104C20000A490B48FFF788FD0A4C2000FFF784FD76
:104C30000948FFF781FD2000FFF77EFDFEF7E2FF48
:104C4000BAE7C046D000002000100240DCF00108A6
:104C500084B901083CDE010835C6010870B5294C4D
:104C60000368226893420ED18022274B9203996AEF
:104C70000A439A629A6A25490A409A629A6B0A40E4
:104C80009A63002212E02200A8321268934227D1D0
:104C900080221D4BD205996A0A439A629A6A1C497E
:104CA0000A409A629A6B0A409A6302225423534341
:104CB0005020E418012320560F22513421781C0083
:104CC00011408C400240934021001943F0238001A1
:104CD0009B011840A023DB05C018FDF73BFE70BD0B
:104CE0000C490D48FFF728FD0C4D2800FFF724FD67
:104CF0000B48FFF721FD2800FFF71EFDFEF782FF9E
:104D0000BFE7C046D000002000100240FFFFDFFFD9
:104D1000FFFFFFBFCAF0010884B901083CDE0108AB
:104D200035C60108094B10B51A6853695169002945
:104D300002D15061416110BD046819688C4202D9EA
:104D40001A005B69F2E71900F3E7C0461808002073
:104D500070B50400FFF7CCF90123637205002468E5
:104D6000FFF7BAF9201AA84200D22800FFF71AFA72
:104D700070BD0000054A10B51368002B01D000215A
:104D8000597243611060FFF7E3FF10BD180800205F
:104D90000023036043600381C16003614361704786
:104DA0000161704737B5040001A8FEF71DFF002C14
:104DB0000FD0124D2A681300002B0ED163682360B8
:104DC00001232381002A0CD1FFF72CF92000FFF7E3
:104DD000D1FF01A8FEF70DFF37BD9C42F9D05B69FA
:104DE000EAE7FFF779F92368C0182B6820601B6891
:104DF0009842EBD32000FFF795FFEAE71808002060
:104E0000F8B5FFF709F90500FFF70CF91A4C23680C
:104E1000002B15D01A00471B5269002A06D1596988
:104E20001A72DA682160002A08D1FEE711680026AC
:104E3000B94201D949190E1A1660EDE71869904771
:104E40002368002B03D1206800280ED1F8BD1D680F
:104E5000FFF742F98542F6D223685A6922600022A0
:104E60001A72DA68002AE9D1FEE7437A002BEDD105
:104E7000FFF76EFFEAE7C0461808002037B50400C8
:104E800001A8FEF7B1FE134D2B68002B01D0002CBA
:104E900003D101A8FEF7ADFE37BD00222272A34266
:104EA0000FD1597A5C69914209D05A72944204D068
:104EB00020002C60FFF74CFFEBE7FFF71BF92C609D
:104EC000E7E71A005B69002BE3D09C42F9D16369E4
:104ED0005361DEE71808002070B505000800FFF7F1
:104EE00052F904002800FFF7C9FFFFF701F98442D7
:104EF00000D204002C606C6070BD000010B50A4C3C
:104F000008222000094912F0C7FB08220849094875
:104F100012F0C2FB10220849084812F0BDFB012321
:104F20000134E37710BDC0461C080020E4010020D6
:104F3000DC01002024080020CC0100202C080020E7
:104F400070B52E488EB0FFF7F7FB2D4D2800FFF708
:104F5000F3FB2C4C2C48E679A378627821780496F0
:104F6000A6790134039626790296E6780196A6780A
:104F70000096FFF7E1FB2800FFF7DEFBA67B637AD4
:104F8000227AE1790496667B20480396267B029676
:104F9000E67A0196A67A0096FFF7CEFB2800FFF787
:104FA000CBFBA67F637C227CE17B0C96667F184856
:104FB0000B96267F0A96E67E0996A67E0896667E62
:104FC0000796267E0696E67D0596A67D0496667D66
:104FD0000396267D0296E67C0196A67C0096FFF756
:104FE000ABFB2800FFF7A8FBE17F0A48FFF7A4FB13
:104FF0002800FFF7A1FB0EB070BDC046E1B9010863
:105000003CDE01081C080020F2B9010837BA01088B
:105010007CBA0108E1BA010810B50B4C002122202E
:10502000FEF72CFD2000FEF7B9FD01212220FEF73E
:1050300025FD2000FEF7B2FD0448FEF7AFFD01227A
:10504000034B00201A7010BD88130000400D0300B0
:10505000EC01002010B50720FEF723FD0128FAD04F
:1050600010BD000010B50A4C2378D9B2002B02D035
:10507000FFF7F0FF10BD0420FEF700FD0121042022
:10508000FEF7FCFCFFF7E6FF01232370F2E7C046C2
:10509000EC010020F7B50D001C0008AB1B881600C2
:1050A0000193FFF7DFFF00210420FEF7E7FC2F004C
:1050B0007619B74216D1019BE618B44218D10121E6
:1050C0000420FEF7DBFC2B78012B09D16B781B2B1E
:1050D00006D1FA200022094B40001A70FEF75EFD4F
:1050E0000020FEBD39780220FFF718F90137E0E70C
:1050F00021780220FFF712F90134DEE7EC010020ED
:10510000F8B51D0006AB0C0017001E88FFF7AAFFBC
:1051100000210420FEF7B2FCE719BC421ED1012198
:105120000420FEF7ABFC002E16D0FFF79BFF0021FA
:105130000420FEF7A3FC00210220FFF7EFF8AE19D0
:1051400000210220FFF7EAF828700135B542F7D1B7
:1051500001210420FEF792FC0020F8BD21780220F6
:10516000FFF7DCF80134D8E770B50C001500FFF745
:1051700079FF00210420FEF781FC6519AC4205D1BE
:1051800001210420FEF77AFC002070BD00210220DE
:10519000FFF7C4F820700134F0E710B5FFF762FFA5
:1051A000002010BD0F2301220B7000238A704B706A
:1051B00002324B710433CA708B71013A04330A71A5
:1051C000CB71704701230B707047012008700221DA
:1051D0001170A4221A60704700230B707047000002
:1051E000F0B52F4B89B0994235D92E4BC9182E4BAB
:1051F000994243D92D4B04279C4607230826079341
:10520000043B06210E24059309333D001800009647
:105210000136069104930394029601966646117036
:105220000799937251700699D3729170009B0599FA
:105230005373117193730499029BD171D3730399C2
:10524000019B5682D7705571947111725072107310
:10525000137409B0F0BD00230C219C4603250424DF
:105260000E3306930D3B05930533674618000791EF
:1052700004940395009302930193CFE70023022146
:10528000042506200327052407269C4607912300B2
:105290000691059704950395009002960190BDE74D
:1052A0000046C32300BA3CDC004E7253EE070000F8
:1052B000022330B51371032838D8FAF713FF021E02
:1052C0003E630B1C0F2912DD0F2300211C001170FF
:1052D00051701134354964B2032060430C1865786D
:1052E000415CA4789570D470517193711EE049B2FD
:1052F0001131EADA2E4B1B78E7E70C1C162916DD74
:105300001624012063B210709471082900DC00207B
:1053100050700320274909335BB258430B0009182A
:105320004C788978C35C9470D170537130BD4BB2A6
:105330000933E6DA204B1C78E3E70B00113312DA6D
:10534000EF231121937149420023113113705370DF
:10535000164B48B203214143581844788078CB5CFF
:105360009470D070E1E7162908DD162191710123B0
:1053700009311370537048B20E4BEBE791710F294E
:10538000F5DCE1E70B1C0D2909DD0D2302211C00D2
:10539000117000211234517064B208499CE749B27F
:1053A0001231F3DA064B1B78F0E7C046BDF1010875
:1053B000F9F001085DF10108FAF00108FDF00108BB
:1053C000FBF0010837B56B460D000020D91D140015
:1053D00001F02AF8002802D000236A46D3716B46F8
:1053E0006A6800210648DB799042804169565BB2C9
:1053F000C91840422200023049B2FFF759FF37BDB9
:10540000FF170D8F0D4885460D480E490E4A0023A3
:1054100002E0D458C4500433C4188C42F9D30B4A68
:105420000B4C002301E013600432A242FBD3FEF7D1
:105430001FF912F0FFF8FBF719F9FEE70050002002
:1054400000000020C8030020A4080208C8030020B0
:10545000F82F0020FEE710B5FFF7DEFD10BD73B595
:105460000E001500694606221C00FFF77DFE00288D
:105470001DD1002E06D06B4601221B781A405B0816
:1054800072703370002D09D06B4601225B781A4090
:10549000AA701A07520F1B096A702B70002C06D0D5
:1054A0006B469A88598812040A4312BA226076BD64
:1054B0001FB502230C00FF3302A90B8000230393C6
:1054C00004330093022203ABFFF71AFE002806D133
:1054D0006B469B8923806B46DB895BBA638004B093
:1054E00010BD00001FB56A46054B917393810023E0
:1054F0000322009303A9FFF7CDFD05B000BDC04610
:10550000010F00001FB56A46054B9173938100237C
:105510000322009303A9FFF7BDFD05B000BDC046FF
:10552000011000001FB5064B03AC23800023A170BF
:10553000E270210004220093FFF7ACFD04B010BD1F
:105540000111000010B5033292108908D2B2C9B21D
:10555000FFF7E8FF10BD00007FB50B000C4A03A960
:105560000A801A788A705A78CA709A780A71DA783A
:105570004A711A798A715A79CA719A790A72DB79F1
:105580000A224B7200230093FFF784FD07B000BD91
:10559000011200000B0010B50B4C86B003A90C8063
:1055A0001C0E8C701C0C5BBA8B80130E8B71130C51
:1055B000CB71002352BA0A81CC700A220093FFF704
:1055C00069FD06B010BDC046011300001FB50B00F9
:1055D000074A02A90A801A0E8A701A0C5BBA8B80DD
:1055E0000023CA7006220093FFF754FD05B000BDEA
:1055F00001140000F7B50D00002101AB0A000700FF
:105600000191FFF72CFF041E04D1019E002E03D14F
:10561000002D09D12000FEBD31003800FFF7D6FF74
:105620000028F5D00400F5E72E60F3E71FB56C46BF
:10563000064B9200A38100231143A1730322009320
:1056400003A9FFF727FD04B010BDC04601160000F6
:105650001FB5084B02AC2380130CE370002352BA31
:10566000A170A280210006220093FFF713FD04B071
:1056700010BDC0460117000030B50B041B0E87B0EB
:105680005B0004AC5B18A370130EE370130C237162
:10569000130A63710023054DA271258007222100A2
:1056A0000093FFF7F7FC07B030BDC046011B0000B8
:1056B0001FB56A46054B9173938100230322009323
:1056C00003A9FFF7E7FC05B000BDC046011C0000C0
:1056D00010B5FFF762FD10BD1FB5054B03A90B8088
:1056E000002302220093FFF7D5FC05B000BDC046A1
:1056F000011D00001FB5054A0B0003A90A80042202
:105700000092023AFFF7FCFC05B000BD012000004A
:105710001FB56A46054B91739381002303220093C2
:1057200003A9FFF7B7FC05B000BDC0460128000083
:1057300002004307DB0F5800130701D50423184369
:1057400010231A4200D01843530501D508231843EB
:1057500020231A4200D0184340231A4200D0184395
:1057600080231A4200D0184380235B001A4200D0E5
:10577000184380239B001A4200D0184380231B014A
:105780001A4202D08021C9000843D10200D5184333
:10579000120302D580235B01184370470200830780
:1057A000DB0F9800530701D50823184310231A4232
:1057B00000D01843130702D58023DB0018432023B1
:1057C0001A4200D0184340231A4200D018438023C5
:1057D0001A4200D0184380235B001A4200D01843BD
:1057E00080239B001A4200D0184380231B015105DF
:1057F00000D518431A4202D080235B031843D20419
:1058000002D580231B031843704700B502880300AC
:105810000A80807804282DD8FAF764FC04031F213D
:10582000230004208870DA78CA701A79012A03D01C
:10583000022A01D0002A1DD10A715A79002A01D00A
:10584000012A17D14A719A798A71D879042811D816
:10585000FAF748FC16090A1214000520E2E70620B0
:10586000E0E70720DEE70020C8711B7A002B09D093
:10587000012B07D0022000BD0420F5E70620F3E746
:105880000120F1E700200B72F5E700B50378020074
:105890000B704078022301380B280ED8FAF722FC4F
:1058A00023060F11131517191B1D1F2101234B7000
:1058B00093788B70D378CB700023180000BD092338
:1058C000F5E70223F3E70A23F1E70323EFE70423D5
:1058D000EDE70D23EBE70523E9E70E23E7E70623D2
:1058E000E5E70F23E3E70823E1E773B56B46DE1D29
:1058F00005000C008068310008F0E6FF031E0FD1A0
:105900002A6822606A68A26032786271287B042863
:1059100010D8FAF7E7FB0307090B0D0000222271EC
:10592000180076BD0822FAE70922F8E70A22F6E70E
:105930000B22F4E70223F3E7028803000A8082784F
:10594000002A02D00220012A07D18A70D8781A7959
:105950005B79C87000200A714B71704710B5040064
:1059600007482100FAF7ACFB0123002805D02100ED
:105970000448FAF7A5FB43424341180010BDC04656
:1059800008BB01080FBB010810B5FFF764FD10BD8F
:1059900030B585B005000822002102A811F0DBFD1A
:1059A0006A4600232800D11C9370D3700193FFF73F
:1059B00013FC6B46DB78002B2ED16B465C1C210060
:1059C0002800FFF7FFFB21782800FFF79BFD041E4E
:1059D00028D1280002A9FFF7E5FB280002A9FFF75C
:1059E000BBFD041E1ED1694601AB6A462800023188
:1059F000FFF7EBFB6B469B78002B13D06B46280020
:105A00001978019AFFF724FE041E0BD13F212800CC
:105A1000FFF768FD040005E001212800FFF778FE8C
:105A2000041ECAD0200005B030BD10B5FFF750FEEF
:105A300010BD13B501AB197000210122040059708B
:105A4000FFF7F4FD002804D1020001992000FFF7C0
:105A500013FE16BD10B5002902D00223012902D180
:105A6000FFF726FE0300180010BD10B5FFF734FE47
:105A700010BD10B5002109F0CDF810BD10B54B1CBC
:105A800005D1074909F086F80300180010BDFA2275
:105A90000323D2029142F8D209F096F8F4E7C04607
:105AA000FFFFFF0010B508F0B7FE10BD022310B5D0
:105AB000994204D80131C9B208F0FEFD0300180074
:105AC00010BD10B508F04EFE10BD10B5002308F053
:105AD0001DFE10BD10B509F0A9F810BD10B508F0F5
