:020000040800F2
:1000000000500020ED5A00083D5B0008B94600088A
:1000100000000000000000000000000000000000E0
:100020000000000000000000000000003D5B000830
:1000300000000000000000003D5B0008954600083D
:100040003D5B00083D5B0008814900083D5B0008FE
:100050003D5B00087D4200088D4200089D4200087B
:10006000000000003D5B00083D5B000815510008E2
:100070003D5B0008494E00083D5B00083D5B000801
:100080003D5B00083D5B00083D5B00080000000090
:100090003D5B00083D5B00083D5B00083D5B0008E0
:1000A0003D5B00083D5B00083D5B00083D5B0008D0
:1000B000255100083D5B0008000000000000000022
:1000C00002780B78002A03D0013001319A42F7D030
:1000D000D01A70470023C25C0133002AFBD1581E9E
:1000E0007047000002B4714649084900095C4900A4
:1000F0008E4402BC7047C04603B4714649084000B4
:100100004900095E49008E4403BC704703B4714640
:10011000490840004900095A49008E4403BC704711
:10012000002934D00123002210B488422CD30124AA
:100130002407A14204D2814202D209011B01F8E73F
:10014000E400A14204D2814202D249005B00F8E7F8
:10015000884201D3401A1A434C08A04202D3001B24
:100160005C0822438C08A04202D3001B9C08224357
:10017000CC08A04202D3001BDC082243002803D095
:100180001B0901D00909E3E7100010BC704701B555
:10019000002000F05FF802BD0029F8D003B5FFF79A
:1001A000C1FF0EBC4243891A1847C046002941D0FE
:1001B00010B404004C40A44601230022002900D5BD
:1001C0004942002800D5404288422CD3012424070C
:1001D000A14204D2814202D209011B01F8E7E400E6
:1001E000A14204D2814202D249005B00F8E7884272
:1001F00001D3401A1A434C08A04202D3001B5C08EA
:1002000022438C08A04202D3001B9C082243CC0846
:10021000A04202D3001BDC082243002803D01B09A4
:1002200001D00909E3E710006446002C00D54042E4
:1002300010BC704701B5002000F00CF802BDC046AC
:100240000029F7D003B5FFF7B3FF0EBC4243891A6C
:100250001847C0467047C0468446100062468C4628
:100260001900634600E0C0461FB51AF04FFE002893
:1002700001D40021C8421FBD10B51AF0A1FD4042B3
:10028000013010BD10B51AF041FE002801DB00203E
:1002900010BD012010BDC04610B51AF037FE002871
:1002A00001DD002010BD012010BDC04610B51AF0C0
:1002B000C9FD002801DC002010BD012010BDC04692
:1002C00010B51AF0BFFD002801DA002010BD012092
:1002D00010BDC046002B11D1002A0FD1002900D13A
:1002E000002802D00021C943080007B4024802A137
:1002F0004018029003BDC0465DFFFFFF03B468468F
:1003000001B5029819F002FE019B9E4602B00CBC9A
:100310007047C046D0400B00D1409C46203AD340A5
:10032000184352426346934018437047914003007C
:1003300090409C46203A9340194352426346D34032
:10034000194370471C2101231B04984201D3000C60
:1003500010391B0A984201D3000A08391B09984238
:1003600001D30009043902A2105C40187047C0464E
:10037000040302020101010100000000000000006E
:1003800010B5002903D1FFF7DDFF203002E008009F
:10039000FFF7D8FF10BDC04610B5064C2378002BE0
:1003A00007D1054B002B02D0044800E000BF012319
:1003B000237010BDC8030020000000008CBB0108A2
:1003C000044B10B5002B03D00349044800E000BFE4
:1003D00010BDC04600000000CC0300208CBB01080B
:1003E00010B5054804F06EFD0122044B04481A7054
:1003F00005F0B8F810BDC046B7BD010838050020AB
:10040000E403002010B5054804F05CFD0122044B14
:1004100004481A7005F0A6F810BDC046C6BD010814
:1004200039050020FC030020F0B5C9B00B2606AC4E
:100430006E443100200006F00BFD61786D4D1429EB
:1004400000D9D1E00800FFF74DFE0B272C5058884B
:100450008A8C8ECF90CFCF989A9C9EC7C9CBCD0067
:10046000654804F02FFD280004F02CFD634C0020AB
:10047000210006F093FB6249002006F06BFB01347B
:100480006049002006F0AEFB0020E17F06F0CEFBC5
:10049000002006F04DFC23E05B4804F013FD28002B
:1004A0004AE00C24594804F00DFD280004F00AFD30
:1004B000574804F007FD280004F004FD554804F0F7
:1004C00001FD280004F0FEFC2200534903A817F0A8
:1004D00095FB002266211000009403AB06F071FC2E
:1004E0003378002BA2D149B0F0BD4C4804F0EAFCAF
:1004F000280004F0E7FC4A48CFE74A4804F0E2FC51
:10050000280004F0DFFC89235B006B44464F1A7817
:10051000464D08A938002A7017F070FBE17944486D
:1005200004F0D0FC2A784349434804F0CBFC002473
:100530002B78A34203D8414804F0C4FCD0E70F2332
:100540001C4204D1002C02D03C4804F0BBFC395DB5
:100550003B4804F0B7FC0134EAE73A489DE73A48E3
:100560009BE73A4899E73A4897E73A4804F0AAFCEB
:10057000280004F0A7FC38488FE738488DE7384852
:100580008BE7384889E7384804F09CFC280004F0E1
:1005900099FC2379354C012B08D1354804F092FCA5
:1005A000280004F08FFC0023236099E7314804F011
:1005B00089FC280004F086FC2168013121600929AA
:1005C00000D88DE72C4804F07DFC280004F07AFC6C
:1005D000002006F0EBFB5BE728485EE728485CE775
:1005E00028485AE7284858E7284B180004F06AFCC6
:1005F00055E7C0467FE80108DABD01085008002031
:100600005808002060080020F8BD010816BE010847
:1006100035BE010852BE01087DC1010874BE010843
:1006200093BE0108AEBE0108200400201C04002077
:10063000CFBE0108EBBE0108FFBE01082AC20108B7
:1006400013BF010819BF01083CBF01085CBF0108C6
:1006500079BF01089CBF0108BDBF0108DABF0108CE
:10066000F7BF010823C0010848C001081404002096
:100670006BC001088AC00108A3C00108D6C00108E8
:10068000FDC0010827C1010856C10108E1C80108E1
:1006900013B56B46DC1D23000022902104F008FFF7
:1006A000002804D10020205619F0B2FD16BDC32049
:1006B0000006FBE713B5019001A803F009F8142028
:1006C00003F0F6FF0121032003F09EFD142003F048
:1006D000EFFF019803F026F90024002826D11430FA
:1006E00003F0E6FF01210198494203F065F9002477
:1006F000002808D1019803F0C5F919F0CBFD0C4989
:1007000019F074FC041C142003F0D2FF019803F0CC
:1007100035F9142003F0CCFF0021032003F074FD11
:10072000142003F0C5FF01A803F0A8F8201C16BD93
:100730006840533A07B5002203000091100055218C
:1007400006F03FFB07BD000070B50500094804F046
:10075000B9FB00242B002A331B78A34203D8064898
:1007600004F0B0FB70BD295D0448013404F0AAFB1D
:10077000E4B2EFE789C101082AC20108ABC1010850
:10078000F0B515001C008DB0071C01A80E1C00F070
:10079000EDF93A1C01A8012100F03EFA321C01A833
:1007A000022100F00BFA2A0001A8032100F0E8F969
:1007B000220001A8042100F0E3F92E236B441978EC
:1007C00001A8FFF7B7FF01A8FFF7BEFF0DB0F0BD0E
:1007D000F0B591B003F0D7FD03F0E8FDBD4804F09B
:1007E00071FBBD4804F06EFBBC49BD4804F06AFBD8
:1007F0000DACBC49BC4806F0DFF8200006F04AF911
:1008000004F05CFFA37862782178B84804F05AFBC2
:10081000B74D280004F056FB082200210EA817F05F
:100820004CF9C221B34CB44BFF31C02261622100AC
:100830002360002312062C3162600B700122042118
:100840002000E363A360A3632261E3602384A362C7
:1008500061612363A3616263E36102F039FF0028F1
:100860000ED0A649A64804F02DFB280004F02AFB70
:10087000A44804F027FB280004F024FB03F088FDC3
:10088000A14B20000E9380230EA95B010F9303F070
:10089000FDF800280ED09949994804F013FB280070
:1008A00004F010FB974804F00DFB280004F00AFB4D
:1008B00003F06EFD0021272003F054FC01212120CC
:1008C00003F050FC0021102003F04CFC0021032019
:1008D00003F048FC012300220221112003F052FC06
:1008E000012300220221122003F04CFC03F04DFDF5
:1008F000864D8749280004F02BFE2800854904F026
:10090000CBFE0021280004F02BFE280004F02AFE74
:10091000814D8249280004F01BFE2800804904F024
:10092000BBFE0021280004F01BFE280004F01AFE84
:100930000EA9002005F030F92121202006AA521826
:1009400006A9091806AB5B8C12780978754804F083
:10095000B9FA03F0D7FF06F089F8734B1B78002B28
:100960004DD0724804F0AEFA2000FFF7A3FE704E9F
:10097000704B011C3060186819F038FB6E4D286010
:100980000120FFF785FE6D4B18601BF0BDF8069047
:10099000079130681BF0B8F8060028680F001BF0BC
:1009A000B3F80B006649020008686649012800D1C7
:1009B00065496648664D0068012800D1654D05957A
:1009C000002502920393069A079B009601976248BE
:1009D000049104F077FA614A534B1D701368013398
:1009E00013605F4B1A68312A09D95E481D6004F014
:1009F00069FA3F4804F066FA280006F00EFA06F09D
:100A000035F803F089FD584B1B78002B38D04F4B3D
:100A10004B4F06931B68484D5A1E93413A68474E08
:100A2000511E8A41DBB2D2B229683068FFF7A8FEB6
:100A300030681BF069F83E4B0890099118681BF06C
:100A400063F80A900B9128681BF05EF80200386882
:100A50000B003C49012800D13B4906983C4D0068F9
:100A6000012800D13B4D029203930A9A0B9B3A480E
:100A700000920193089A099B0595049104F022FACB
:100A8000272003F0D4FB010001281DD1212003F011
:100A9000BBFB0021272003F0B7FB112003F0C7FBAD
:100AA000002801D0012801D1284B1860122003F042
:100AB000BEFB002801D0012801D1214B1860FA208B
:100AC000800003F0F5FD44E70021212003F09CFBAA
:100AD0000121DFE7C6C1010818C201082DC20108C3
:100AE00034C201082904000868F901083FC201085E
:100AF0007FE801083C050020002401405BF9010863
:100B000066C20108C6CF010820000014FC030020C3
:100B100005040008204E0000E4030020E103000863
:100B200060EA00007CC2010839050020A7C2010864
:100B30002C05002000000020300500203405002096
:100B400028050020B6C10108B1C101082405002014
:100B5000C2C10108BDC10108C1C2010820050020B1
:100B600018040020FEC201083805002010B52A2212
:100B70000400002116F0A1FF00232A34237010BDC9
:100B800070B504002A342378DD1C292D05D91E21D7
:100B9000074B084A084816F02BF90026C154591C87
:100BA0000233C9B2DBB246542570C25470BDC04690
:100BB00016C301089DFA010863C30108F7B50500D3
:100BC0002E0001912A363478101C271D292F05D9B3
:100BD00032210D4B0D4A0E4816F00AF90D4919F055
:100BE00005FA19F0F7FA0222019B00B22B55631C9B
:100BF000DBB2EA54A3180334DBB20212E4B2EA54C3
:100C000037702855F7BDC0468FC3010880FA010828
:100C100063C301080000C842F7B505002E0001912A
:100C20002A363478101C271D292F05D95F210D4B3A
:100C30000D4A0E4816F0DCF80D4919F0D7F919F0F5
:100C4000C9FA6722019B00B22B55631CDBB2EA5440
:100C5000A31C0334DBB20212E4B2EA543770285505
:100C6000F7BDC046DBC3010864FA010863C301088D
:100C70000000204103689A69920701D500229A6218
:100C800001229969114202D199690A439A61704718
:100C900030B5039C1204006822431A43054B456893
:100CA000640D8905890D23439D430A432A4342600D
:100CB00030BDC046FF63FF03F7B5036801929A6930
:100CC00004000E000020D20635D55A68920104D4E3
:100CD00080225968D2010A435A6020272568AB69EF
:100CE0003B4211D010232000EB61EF61FFF7C2FF00
:100CF0006B68114A13406B600423626C1343636496
:100D0000230041331F7010E0731CE8D001F022FC77
:100D1000019BC01A864201D3002EDFD12022636CD2
:100D200013436364230041331A7000225A70002376
:100D3000012040342370FEBD00E800FEF8B5040039
:100D40000D001600022723689B693B4201D000205A
:100D50001BE0320029002000FFF7AEFF002813D16E
:100D60006B1CF0D001F0F6FB801BA8420ED92022AC
:100D7000636C13436364230041331A702200002321
:100D800042324034137023700120F8BD002DDAD1B7
:100D9000EDE7F8B504000D001600202723689B69D5
:100DA0003B4201D0002019E0320029002000FFF76B
:100DB00083FF002811D101F0CDFB801BA8420ED982
:100DC0002022636C13436364230041331A702200B2
:100DD000002342324034137023700120F8BD002DEF
:100DE000DCD1EDE7F8B504000E0017001D00226805
:100DF000936933409B1B59424B41BB4201D00020B9
:100E000015E06B1CF4D001F0A5FB069BC01AA842AC
:100E10000ED92022636C0120134363642300413305
:100E20001A70220000234232403413702370F8BD40
:100E3000002DDCD1EDE70000F7B5050014001E0021
:100E4000DAB2154B099F00930023FFF721FF3A0008
:100E500028000899FFF772FF002801D00120FEBD8D
:100E60002B68012E0CD1E4B29C62089B0022402129
:100E700028000097FFF7B6FF431E9841C0B2EEE787
:100E8000220A9A6228003A000899FFF757FF0028C3
:100E9000E4D12B68E7E7C0460020008070B504006D
:100EA0000120002C3FD0250041352B78DAB2002BF1
:100EB00005D12300403320001A7004F0F9F92423EF
:100EC00001212B702368E0681A68A6688A431A60BB
:100ED0001A4962680A401A619A6819490A409A6078
:100EE000012821D18022120232439A605868154AA3
:100EF00002435A60DA6800200A40DA6061692269B8
:100F00000A43A16909020A43DA60216AE2690A43D5
:100F10001A60012219680A431A60202360642B704A
:100F200020634234207070BD8422120232439A60E2
:100F30000228DBD1802212015A60D7E7FFFFFFF0C1
:100F4000FF7FFFFF0080000270B504000120002C2D
:100F500013D02500242341352B7022681368834366
:100F60001360200004F040FA002023006064423344
:100F70002870206340341870207070BDF0B50700F1
:100F800089B007930EAB069204CB02911B880492A2
:100F9000059341373B7804000220202B08D1002A1A
:100FA00002D0059B002B05D180239B0063640120A8
:100FB00009B0F0BD2300403303931B780220012BBE
:100FC000F6D00126039B1E7001F0C4FA8021320086
:100FD00000900500192320000902FFF703FF061EF9
:100FE000E5D122233B7027001E3342373B70049B20
:100FF00060646362059B60636385109B20000093BF
:10100000069A079B02990195FFF716FF002802D068
:10101000039B1E70CBE7628D334BFF2A53D9FF220F
:101020002285009380235B0420000299FFF730FEA5
:10103000002204212000109B0095FFF7D3FE00281A
:10104000B5D123685A6A636A1A70636A228D0133C4
:101050006362638D013A013B9BB26385638D92B2FB
:101060002285002B16D0002A14D180212000109B4D
:101070000095FFF7B7FE002800D098E7638DFF2B9F
:1010800029D9FF22802322855B0400902000029949
:10109000FFF7FEFD638D002BCAD12A0020001099B6
:1010A000FFF777FE002800D081E7202123680F4D4D
:1010B000D9615A682A405A6023004034413319707C
:1010C0003870207074E7628D92B22285009380237D
:1010D000D2B29B04A8E78023628D9B0492B2228542
:1010E000D2B20090D2E7C0460024008000E800FEA3
:1010F000F0B504004134227803000F000220D6B27C
:10110000202A18D11D0040352A78012A13D0242224
:1011100022701B68233A19680748914319601968BF
:1011200001400020196019683943196019680A43A1
:101130001A6026702870F0BDFFEFFFFF0200F0B5C7
:10114000413214780300E5B20220202C17D11C0094
:1011500040342678012E12D0223010701B682338BC
:101160001E68074F86431E601E6809023E403143D9
:101170001960196808431860002015702070F0BDD0
:10118000FFF0FFFF0C4B70B505000C0018680B4911
:10119000FEF7C6FFFA239B0043432968002003257E
:1011A000013B002B00D128000A682240A24201D056
:1011B000002BF5D170BDC0460C000020204E000071
:1011C000F7B504000120002C44D025002E352B78E3
:1011D000DAB2002B05D123002D3320001A7003F062
:1011E00047FE02232B7026686168F368A06A012914
:1011F00003D080221204904201D11E2293436269DF
:10120000184FBA4201D0184F3B40184F1F40A368F7
:1012100001979C460B00674603431F43236A3B43E9
:10122000676A3B43019F3B43002914D1E169276969
:1012300039430B438021090488420ED009498A4270
:1012400004D0A1690A43E1690A431343F36001230F
:1012500000202B70FEBD0129ECD1E168206901431B
:101260000B43EBE7FFFF00003F1FFFFFFEF119FFFD
:10127000704770477047704770477047704701224A
:10128000036810B519680400114205D0996811422D
:1012900002D05A60FFF7ECFF02222368196811425E
:1012A00006D09968114203D020005A60FFF7E1FF91
:1012B000042223681968114206D09968114203D0AC
:1012C00020005A60FFF7D6FF0822236819681142F0
:1012D00006D09968114203D020005A60FFF7CBFF77
:1012E000102223681968114206D09968114203D070
:1012F00020005A60FFF7C0FF2022236819681142BE
:1013000006D09968114203D020005A60FFF7B5FF5C
:10131000402223681968114206D09968114203D00F
:1013200020005A60FFF7AAFF10BD0000F0B50500CD
:1013300085B072B6002304682E4E0193B44205D1E5
:101340002D4BDA6CC0231B031A400192A368029351
:10135000E36861690393A769B44209D18023264AEF
:101360001B06906A03439362936A5B005B08936277
:101370000B003B4332D0B44204D11F4A1F48D36C08
:101380000340D36400290FD00123226928001343AE
:10139000236161610821FFF7F5FE032802D12B00CC
:1013A0002E33187008236360002F0ED001232269AA
:1013B0001021134323612800A761FFF7E3FE0328F0
:1013C00001D12E35287010236360B44206D10A4A39
:1013D0000A49D36C0B4001990B43D3640122236962
:1013E00093432361029BA360039BE36062B605B055
:1013F000F0BDC046007C004000100240FFFFF3FF3C
:1014000070B5050002232E352B700400FFF78EFF08
:101410002B78D8B2032B07D022680449D368002068
:101420000B40D36001232B7070BDC046FFFFF7FF58
:10143000F7B50700019202222E373A7080220B0086
:101440001B4904000868920502430A60802225684F
:101450000126E96812030A431021EA602A69200084
:1014600032432A616960AB61FFF78CFE032801D12A
:101470000320FEBD0821019B696020006B61FFF71E
:1014800081FE0328F4D02000FFF750FF3B78032BA8
:10149000EED0236800209A6832439A601A6932437A
:1014A0001A61042219690A431A613E70E1E7C046D5
:1014B0000004014070B5050002230D4A2E352B7043
:1014C00013680C4904000B401360FFF72FFF2B78C3
:1014D000D8B2032B0AD023680749DA6800200A40F3
:1014E0000121DA609A688A439A60297070BDC0460B
:1014F00000040140FFFFFFDFFFFFF7FFA0210268AC
:10150000F8B5D36804008B43D36001F023F8FA27C1
:1015100005002026BF002368DB68334201D000208D
:10152000F8BD01F017F8401BB842F4D90320F7E7E3
:10153000F8B5402603680400DA68324201D0002082
:10154000F8BD01225242DA6001F004F8FA270500E2
:10155000BF002368DB683342F1D100F0FBFF401B82
:10156000B842F6D90320EBE7F8B5041E19D0861C63
:10157000F37FDAB2002B03D1431CDA7703F022FAAF
:101580000223CA22F377236820005A62773A5A620C
:10159000FFF7CEFF2368051E06D0FF225A62042300
:1015A000F37701252800F8BD9A681C4920690A4094
:1015B0009A60626899680243A06902430A439A608C
:1015C000E26860691A61A268196912040A438021FD
:1015D0001A61DA688A43DA60DA6C7D398A43DA6440
:1015E000E269D96C02430A43DA649A68202317003F
:1015F0001F401A420CD12000FFF780FF002807D0BF
:10160000FF22236801345A620423F377E777C8E79F
:10161000FF2223685A620123F377C3E7BFFF8FFFDE
:101620000023092803D81B011843C0B270470A38A9
:101630000133C0B2F5E70000F0B5431C85B001935B
:101640000C00D97F022305001F00012936D001219B
:101650004018C177E918CB7702912F682078667817
:101660003E33002A2DD1BA68110019401A4200D128
:10167000E170FFF7D5FF03903000FFF7D1FF0600C0
:10168000A078FFF7CDFFE378039A1B04034312040D
:10169000134336021E43CA237B62773B7B622800DA
:1016A000FFF746FF2B68071E19D0FF225A6204235A
:1016B000029AD3770023019AD3770127380005B027
:1016C000F0BDBA68110019401A4200D1E170A37848
:1016D0000004360206431E43E3781B04DAE7174A88
:1016E000174916401E609A6820690A409A60E268AD
:1016F000996802430A4380219A60DA688A43DA6073
:101700009A68202314001C401A420DD12800FFF7CC
:10171000F5FE002808D0FF222B685A620423029AA3
:10172000D377019BDC77C8E7FF222B685A6201233D
:10173000029AD3770023019AD377BFE77F7F7F0098
:10174000FFFFFBFF0223F0B5471C0D00F97F0400EB
:101750001E0085B0012924D00121F977C118CB776B
:101760000191A9782E78E8786B7876030291002AA7
:101770001AD00004304308431D02CA2223680543DF
:101780005A62773A5A622000FFF7D2FE2368061E9B
:1017900020D0FF225A620423019AD3770023FB77DB
:1017A0000126300005B0F0BD1022134202D0934351
:1017B0000A336B70FFF734FF03906878FFF730FF50
:1017C00005000298FFF72CFF039B30431B041843CE
:1017D0002D02D2E78021114A15405D60DA688A4304
:1017E000DA609A68202315001D401A420CD12000AF
:1017F000FFF784FE002807D0FF2223685A620423E3
:10180000019AD377FD77CBE7FF2223685A62012341
:10181000019AD3770023FB77C3E7C0463FFFFF0061
:10182000030902000A200F2158430A408018C0B261
:1018300070470000F7B50C0001683F208B6A6360B9
:101840000B690D685B045B0CA360104B1D402E0AF6
:10185000290CF6B208403302034301934023EDB252
:101860001940019B2F0409063B430B432360002AC8
:101870000AD1FFF7D5FF20703000FFF7D1FF60706D
:101880002800FFF7CDFFA0700020FEBD7F7F7F0006
:1018900070B50C0003680E495B680B40180CDD0442
:1018A000DEB21B04ED0E5B0FE0706570A670237056
:1018B000002A0AD1FFF7B4FFE0702800FFF7B0FF5D
:1018C00060703000FFF7ACFFA070002070BDC04614
:1018D0003FFFFF000223F0B585B0451C0291039243
:1018E000EA7F04001800012A5BD00122E618EA779B
:1018F000F3772368C9325A62773A5A629B685B056C
:1019000037D423682B499A68FA270A409A60D96825
:10191000294AC9B20A43DA6000F01CFEBF000190F8
:1019200004212368DA680A423DD0029A03315A61E1
:101930009A688A439A609A6803990A4380219A6058
:101940001E4A490310680843106090680143916083
:1019500080229968D2010A439A6080229968D20055
:101960000A439A60FF2200205A620123F377E87746
:1019700017E000F0EFFDFA270190BF000422236872
:10198000DB681342BDD000F0E5FD019BC01AB842F0
:10199000F4D9FF22236803205A620323F37700233C
:1019A000EB7705B0F0BD00F0D5FD019BC01AB84241
:1019B000B6D9EEE7FFFBFFFF7FFBFFFF000401400E
:1019C0000223F7B5451CEA7F04001800012A31D034
:1019D0000122E618EA77F3772368C9325A62773A28
:1019E0005A629A68144904270A409A609A6813490F
:1019F0000A409A6000F0AEFD00902368DA6811009A
:101A0000394001913A4206D0FF2200205A62012358
:101A1000F377E8770EE000F09DFD009BC01AFA23F3
:101A20009B009842E9D9FF22032023685A62019B58
:101A3000F077EB77FEBDC046FFFBFFFFFFBFFFFF68
:101A400070470000036810B5DB6804005B0507D52C
:101A5000FFF7F6FF2168064BCA68D2B21343CB608A
:101A60008022044B52035A6101230234E37710BDF4
:101A70007FFBFFFF00040140022210B5411CCC7F18
:101A800003001000012C10D09818C2771B68C832D0
:101A90005A62773A5A629C68333A22439A60FF222C
:101AA0005A620123C3770020C87710BDF8B504003F
:101AB0000120002C5AD0636A002B58D18222616821
:101AC0005200914200D0E361250051352B78DAB203
:101AD000002B05D12300503320001A7002F0FCFFC8
:101AE0000227402282262F708427216876000B6807
:101AF0003F0293430B606368A2693340A668A06A03
:101B00003E4080273343E6683F013E40022733438F
:101B100026693E4033436669013F3E403343802699
:101B2000B60016403343E66937373E403343266AF2
:101B300048373E40334380260700B60137403B43D9
:101B40000B6004231027120C1A40636A3B401A43AF
:101B50004A60B04202D1E36A9BB20B61CB69064A8C
:101B600000201340CB61012360652B70F8BD00237A
:101B700023616361A8E7C046FFF7FFFF70B504006B
:101B80000120002C10D025000223402151352B705C
:101B900022682000136850348B43136003F052F81E
:101BA000002060602870207070BD000030B5EFF339
:101BB0001084012282F310880168124D0B682B40BB
:101BC0000B6084F31088EFF3108482F310880168AF
:101BD0008B6893438B6084F31088036E93420AD121
:101BE000EFF3108183F31088102402681368A34375
:101BF000136081F310882023C367002303664366C4
:101C000030BDC046DFFEFFFF70B504000120002C90
:101C100014D024230025A36723681A6882431A601E
:101C200020001D605D609D6003F038FA2800231DD0
:101C3000DD67A567E56725667434257070BD70475C
:101C40007047806A0023020010B55A321380083AA8
:101C50001380FFF7F5FF10BD70470000F7B50400D3
:101C60000068A74BC1690668856819420BD120231B
:101C7000194200D17FE01E4200D17CE0636E20005B
:101C8000002B6ED16EE001232F009E4A1F40324090
:101C90003A4300D16FE0251D194205D0F20503D566
:101CA0000362EA6F1343EB670223194206D0002F49
:101CB00004D00362EA6FDB181343EB670423194275
:101CC00006D0002F04D00362EA6F023B1343EB6798
:101CD0000823194207D0202232403A4303D003623E
:101CE000EA6F1343EB6780231B01194206D0720190
:101CF00004D503622023EA6F1343EB67EB6F002BDD
:101D000030D02023194206D01E4204D0636E002B2F
:101D100001D0200098472268EB6F40279668282260
:101D20003E40134020001E4321D0FFF73FFF2368B1
:101D30009B683B4217D0EFF31081012383F3108897
:101D400022689368BB43936081F31088206F00285A
:101D500009D06D4B836301F0EBFA002802D0206FAD
:101D6000836B9847F7BD2000FFF76AFFFAE7FFF79C
:101D700067FFEE67F6E7236E012B00D094E0102298
:101D8000114200D190E0164200D18DE002628168DC
:101D900040200D000540014250D0216F0D68696858
:101DA00089B20029DED02600583636888E42D9D92D
:101DB00026005A3631802D6820212E000E400196D3
:101DC0000D422FD1EFF3108783F3108826684F4A16
:101DD00035681540356087F31088EFF3108783F37B
:101DE00010882668B5689D43B56087F31088EFF3C7
:101DF000108683F310882568AF688743AF6086F349
:101E00001088019AE1672266EFF3108083F310884F
:101E1000102221680B6893430B6080F31088206FB9
:101E200001F066FA230022005A3358321B881188C9
:101E3000C91A89B22000FFF70FFF93E7260021009F
:101E40005A36308836885831098880B2002E00D141
:101E500088E7091A89B2002900D183E7EFF31087D8
:101E600083F3108826682A4A30681040306087F370
:101E70001088EFF3108783F310882668B0689843C2
:101E8000B06087F3108820206566E0672566EFF371
:101E9000108583F31088206832320368FF32934341
:101EA000036085F31088C5E780235B03194206D0E1
:101EB0006D0204D50362200000F0CCFA52E78023C3
:101EC000194203D01E4201D0A36ED8E6402211422F
:101ED00000D147E7164200D144E7EFF31080012319
:101EE00083F3108821680B6893430B6080F310889C
:101EF0002023A36700232000A366FFF7A0FE31E79D
:101F00000F08000020010004431C0008FFFEFFFF33
:101F1000DFFEFFFFF8B504002569A16802682943C8
:101F20006569C369294310686F4D1943284001430F
:101F3000116051686D486E4D0140E0680143516089
:101F4000A069AA4201D0216A08439168694E3140D4
:101F50000143916068498A4214D103218020674A75
:101F60000002D26C0A40022A00D179E08A4200D1F4
:101F70009DE0012A00D193E0834200D19AE000F075
:101F800087FE63E05E498A4217D10C215B4AD26C1E
:101F90000A40082A00D190E00AD8002A59D18022AC
:101FA0001202934250D100F063FE031E47D061E05D
:101FB0000C2A00D179E0012042E052498A42EED059
:101FC00051498A42EBD0AA42F5D1C02180204B4A28
:101FD0000901D36C00010B4083420AD004D8002BC6
:101FE00029D100F045FE28E08B42E4D18020000298
:101FF00006E01068454BC006C0171840444BC01897
:102000000323626853439842D5D313039842D2D82E
:102010000021070E0602500836184F410B00300011
:102020003900FEF757F93B4BC2183B4B9A42C2D8D6
:102030002368D86003E000F0B5FA0028E0D1002062
:1020400000236366A366F8BD00F012FE0028F6D0F8
:102050003FE080221202934224D100F0A3FAA4E7C9
:1020600083422ED1254B294A1B68DB06DB17134020
:10207000274A9B1861685B0048081818FEF750F85B
:10208000264982B2103A03048A4200D993E70F220C
:102090001B03904380B222685B0F1843D060CEE7E9
:1020A0008342DAD000F07EFAD0E78020000283423B
:1020B000E0D00EE000F0ECFD77E7802212029342C0
:1020C000D0D00E4B1868114BC006C0171840104BEB
:1020D000C01861684B081818FEF722F880B2020099
:1020E0000E4B103AA2E7C046F369FFEFFFCFFFFFA8
:1020F00000480040FFF4FFFF00380140001002409C
:1021000000440040004C00400050004000E548FF03
:102110000024F40000FDFFFFFFFC0F00EFFF0000B4
:10212000436A30B5DA0706D50168284C4A68224070
:10213000846A22434A609A0706D50168244C4A689B
:102140002240C46A22434A605A0706D50168214CDE
:102150004A682240046B22434A601A0706D5016888
:102160001D4C4A682240446B22434A60DA0606D579
:1021700001681A4C8A682240846B22438A609A065E
:1021800006D50168164C8A682240C46B22438A60D7
:102190005A0610D50168134D4A68046C2A40224340
:1021A0004A6080225203944205D14A680E4C224074
:1021B000446C22434A601B0606D502680B495368EB
:1021C0000B40816C0B43536030BDC046FFFFFDFFE9
:1021D000FFFFFEFFFFFFFBFFFF7FFFFFFFEFFFFFA4
:1021E000FFDFFFFFFFFFEFFFFFFF9FFFFFFFF7FF97
:1021F000F8B504000D0017001E002268D3692B40BB
:102200005B1B59424B41BB4201D0002027E0069B9B
:102210000133F3D000F09EF9069B801B984201D851
:10222000002B1DD1EFF31080012282F3108821686A
:102230001E4D0B682B400B6080F31088EFF310806D
:1022400082F3108821688B6893438B6080F3108839
:102250002023A367E3670023032074342370F8BDB1
:1022600023681A685207C8D58022D9691201114221
:10227000C3D01A62EFF31080012282F31088216824
:102280000A4D0B682B400B6080F31088EFF3108031
:1022900082F3108821688B6893438B6080F31088E9
:1022A0002023221DA367E367D367D4E75FFEFFFF08
:1022B000F0B587B00593836F04000D00160002206F
:1022C000202B4ED1013800294BD0002A49D0802341
:1022D000A2685B019A4204D12369002B01D101421B
:1022E0003FD1270074373B780220012B39D00123DE
:1022F00000223B70231DDA672123A36700F02AF92F
:10230000230050331E8002331E8003938023A26873
:10231000002604905B019A4204D12369B34201D1A3
:102320002E001D0000233B70230052331B889AB2FD
:10233000002B0BD1059B402100932000049BFFF74D
:1023400057FF00280CD12023A3670AE0059B002239
:10235000009380212000049BFFF74AFF002802D051
:10236000032007B0F0BD2268002D0BD13388023660
:10237000DB05DB0D9362039B039A1B88013B9BB239
:102380001380D1E72B7801359362F4E773B500260B
:102390000400031DDE6700F0DDF8236805001B68FC
:1023A0001B0716D423681B685B070AD580210F4BD7
:1023B0000022009320002B00C903FFF719FF00281B
:1023C00012D120230020A367E367206674342070B5
:1023D0000BE08021054B32000093890303002000AD
:1023E000FFF706FF0028DDD0032076BDFFFFFF01C9
:1023F00010B5041E01D1012010BD836F002B04D144
:1024000002007432137002F0B1FD2423012122680E
:10241000A367136820008B431360FFF77BFD01283F
:10242000E9D0636A002B02D02000FFF779FE236811
:1024300007495A6820000A402A215A609A688A434C
:102440009A60012219680A431A60FFF79FFFD3E7D9
:10245000FFB7FFFF7047000070B504000120002C9B
:1024600016D02368124A07261A60124A1A60626858
:102470005A60A2689A6000F06DF805002368DA6877
:10248000324206D11969E26891420DD01A610020EA
:1024900070BD00F05FF8401B2A28EFD92368DB6885
:1024A0003342EBD00320F3E7034A1A60EFE7C0465C
:1024B000CCCC000055550000AAAA00000368024ACF
:1024C00000201A607047C046AAAA000070B5050037
:1024D000FA200D4B80001978FDF722FE0B4C01000D
:1024E0002068FDF71DFE01F01DF804000120002CFE
:1024F00009D1032D07D802382200290000F0CCFFB3
:102500002000034B1D6070BD040000200C00002063
:10251000080000200223084A10B5116803200B436D
:102520001360FFF7D3FF041E03D102F0B9F82000B7
:1025300010BD0124FBE7C04600200240034A044BC3
:1025400011681B785B1813607047C046980500201F
:1025500004000020014B18687047C0469805002011
:1025600070B50400FFF7F6FF0500631C02D0044BB2
:102570001B78E418FFF7EEFF401BA042FAD370BDB2
:10258000040000200221024A13688B431360704745
:1025900010E000E00223024A11680B431360704709
:1025A00010E000E00C221E4B70B5DC682240082AC7
:1025B00034D00C2A0CD0042A28D1186810231840D3
:1025C00043425841174B40421840174BC01870BD4A
:1025D000A2021648120F805C80222402D968A40F40
:1025E00052020134114209D0114A0023002117F090
:1025F0006BFC22000023FDF76DFEE8E71A6810234C
:102600001A4201D0084AF0E70A4AEEE780205B68E8
:1026100000021B045B0F01339840D8E70448D6E75B
:1026200000100240001BB70000093D00F8FA010845
:1026300000127A000024F400F0B5050085B00028EF
:1026400055D00C23C04C0268E668E7681E40802322
:102650005B0219001F40D2073DD42B689B0700D5B1
:1026600086E02B68DB0628D5002E00D0DFE023684B
:102670009B0502D5AB69002B39D080276268B3492E
:102680002B6A0A401A435B0B01333F029F40626092
:102690006168EA690902090A12060A436260E16890
:1026A000AB480B061B0FC35CAA4ADF40AA4B17605E
:1026B0001868FFF70BFF002830D12B681B0700D5E7
:1026C000ECE02B685B0700D50EE16B6A002B00D0B5
:1026D00093E1002022E0082E03D00C2E09D1002F18
:1026E00007D023689B03B8D56B68002BB5D10120B8
:1026F00014E06A688A4213D1226813432360FFF70B
:1027000029FF00908022236892021342A5D1FFF78F
:1027100021FF009BC01A6428F4D9032005B0F0BD46
:10272000A021C9028A4205D180222168D2020A432F
:102730002260E1E7216889480140216021680B405F
:102740000393039B864923680B402360002AD6D15C
:10275000FFF700FF0090802223689202134200D10D
:102760007BE7FFF7F7FE009BC01A6428F3D9D4E794
:102770002022EB68134203D0216893431143216068
:10278000042E03D00C2E24D1002F22D12268520710
:1027900001D5002BABD061682A6972481202014052
:1027A0000A430921626022688A4313432360FFF7CA
:1027B000F9FEE368664A1B061B0FD35C6549D840E7
:1027C000654B08601868FFF781FE002800D148E7D4
:1027D000A4E7002B19D0092122688A431343236000
:1027E000FFF7B8FE070004222368134207D062688F
:1027F0002B695C491B020A401343636031E7FFF712
:10280000A9FEC01B0228EED987E701222368934363
:102810002360FFF79FFE070004222368134200D1C4
:102820001FE7FFF797FEC01B0228F5D975E7AB69D4
:10283000002B20D0802322685B0013432360FFF726
:1028400089FE070080222368920013420DD063683E
:102850003E4A13402A6A134363606268EB691202BE
:102860001B06120A1343636027E7FFF773FEC01BC2
:102870000228E7D951E723683B4A13402360FFF75A
:1028800069FE0700802223689200134200D114E7FA
:10289000FFF760FEC01B0228F4D93EE76A690123F6
:1028A000002A10D0226D13432365FFF753FE070063
:1028B0000222236D134200D003E7FFF74BFEC01B3B
:1028C0000228F5D929E7226D9A432265FFF742FED7
:1028D00007000222236D134200D1F2E6FFF73AFE11
:1028E000C01B0228F5D918E780230021A26B5B05E5
:1028F00000911A4204D1A26B1343A36301230093F6
:1029000080221A4F52003B68134208D08022AB68E5
:10291000520093422CD1226D134323654DE0802257
:102920003B68520013433B60FFF714FE0190802286
:102930003B6852001342E9D1FFF70CFE019BC01A1D
:102940006428F4D9E9E6C04600100240FF1FFFFFEB
:102950000CFB01080C00002008000020FFFFFEFF18
:10296000FFFFFBFFFFE0FFFFFFFEFFFF00700040E7
:10297000002B16D1236D514A13402365236D504A15
:1029800013402365FFF7E6FD07008022236D9200C8
:1029900013421AD0FFF7DEFD4A4BC01B9842F4D910
:1029A000BBE6A021C9008B4218D18023216DDB003A
:1029B0000B432365236D1A432265FFF7CBFD070008
:1029C0008022236D9200134210D0009B012B00D077
:1029D0007BE6A36B3C4A1340A36376E6236D374A3C
:1029E00013402365236D364A134096E7FFF7B2FD87
:1029F000344BC01B9842E3D98FE60C2E43D0334AA8
:102A0000022B2ED12368802713402360FFF7A2FDFD
:102A10000600BF0423683B421DD1E96AAB6AE26845
:102A20000B432B4980260A4013432A6BB6041343F9
:102A3000E360802322685B0413432360FFF78AFD71
:102A400005002368334200D043E6FFF783FD401BB7
:102A50000228F6D961E6FFF77DFD801B0228D9D94F
:102A60005BE62368802613402360FFF773FD0500B3
:102A7000B6042368334200D12BE6FFF76BFD401B01
:102A80000228F6D949E6012B00D130E68023E06820
:102A9000AA6A5B020340934200D028E6F023EA6A68
:102AA0009B030340934200D021E6C0231B0418403F
:102AB0002B6BC01A431E9841C0B22FE6FFFEFFFFEA
:102AC000FFFBFFFF88130000FFFFFFEFFFFFFFFE8C
:102AD000FFFF02FFF7B5041E019101D10120FEBDE9
:102AE00001255B4E019A33682B40934231D3226813
:102AF000930743D4D20749D401253368019A2B4068
:102B0000934209D93368AB433360FFF723FD0700D5
:102B100033682B4200D08CE022684E4D530700D51D
:102B20008FE0120706D5EA6823694B49DB000A40AB
:102B30001343EB60FFF736FDEB68484A1B061B0F9B
:102B4000D35C4749D840474B08601868FFF7BEFC84
:102B5000C5E73368019AAB4313433360FFF7FAFCD0
:102B600007003368019A2B409342C0D0FFF7F2FC74
:102B70003D4BC01B9842F4D90320B0E7F020354903
:102B8000CB688343A0680343CB60B3E7314D6268F1
:102B90002B68022A18D19B03A0D50321EB688B4335
:102BA0001343EB60FFF7D6FC63680700022B18D1D4
:102BB0000C22EB681340082B9ED0FFF7CBFC2A4B6E
:102BC000C01B9842F4D9D7E7032A02D19B01E4D471
:102BD00084E7012A02D15B07DFD47FE79B05DCD4C1
:102BE0007CE7032B0BD10C22EB681340934283D07C
:102BF000FFF7B0FC1C4BC01B9842F4D9BCE7012B7B
:102C000011D00C22EB68134200D175E7FFF7A2FC4C
:102C1000154BC01B9842F4D9AEE7FFF79BFC124B53
:102C2000C01B9842A8D80C22EB681340042BF4D1A7
:102C300062E7FFF78FFC0C4BC01B984200D867E798
:102C40009AE7EB6809490B40E1680B43EB6068E7E2
:102C50000020024000100240FFC7FFFF0CFB0108EC
:102C60000C0000200800002088130000FFF8FFFF80
:102C7000044B054ADB6805495B055B0FCB5C1068BC
:102C8000D8407047001002400C00002004FB0108EF
:102C9000044B054ADB6805499B045B0FCB5C10685D
:102CA000D8407047001002400C00002004FB0108CF
:102CB0001F230360224B10B51A68520339D48021B8
:102CC0001A6849020A400121E02442601A6824027D
:102CD0000A40C2605A68D204D20E02611A68120A0F
:102CE0000A4082615A68120EC2615A68224002622A
:102CF0001A6D520520D41A6D120A0A4012020121DF
:102D000082601A6D0A4042611A68D201D20F5218CD
:102D100080214262DA6849020A40F0218262DA6860
:102D200089030A40C262C022DB68120413400363B5
:102D300010BDA022D202C6E7A022D200DFE7C04623
:102D4000001002400F2310B5032403600B4BDA6818
:102D500022404260DA68ED342240E0248260DA6882
:102D6000E4002240C2600122DB68DB0823400361EB
:102D7000034B1B6813400B6010BDC046001002409F
:102D8000002002400368F7B505009B063BD5802371
:102D90000021584C5B05A26B00911A4204D1A26B32
:102DA0001343A363012300938027534E7F003368AE
:102DB0003B425AD0686822680100C0234240C020CC
:102DC0009B0280031940024260D1226D100018401E
:102DD0001A4262D16968C0230A009B021A409A42D3
:102DE00007D1236845480340C020800301400B43BE
:102DF0002360236D1A43009B2265012B03D1A36B33
:102E00003F4A1340A3632B68DA0706D503203949EC
:102E1000CA6C8243A8680243CA649A0706D50C208C
:102E20003449CA6C8243E8680243CA645A0706D52B
:102E300030493448CA6C024028690243CA641A0700
:102E400006D52C493048CA6C024068690243CA64FE
:102E5000DA0506D527492D48CA6C0240A869024305
:102E6000CA641B063ED400200FE033683B43336046
:102E7000FFF770FB019033683B429BD1FFF76AFB81
:102E8000019BC01A6428F6D90320FEBD99429CD14B
:102E900022680120920398D5F7E788429AD02B68E0
:102EA0009B0697D58021236D206D09030143216581
:102EB000216D164A16481A40014021652265DB053E
:102EC00000D487E7FFF746FB80270600BF00236D8D
:102ED0003B4200D07EE7FFF73DFB0E4B801B984244
:102EE000F5D9D1E7034A0C49D36C0B40E9690B4390
:102EF000D364B8E70010024000700040FFFFCFFF2E
:102F0000FFFFFFEFFFF3FFFFFFCFFFFFFFFFFCFF20
:102F1000FFFFF7FF88130000FFFFF3FF0122084BBC
:102F20000020596811420AD0EFF3108172B60548AB
:102F3000D8600548D86081F3108858681040704701
:102F400000200240EFCDAB89050403020123034AB0
:102F5000002051680B4353607047C0460020024078
:102F60000023F0B585B00A681400DC4001D105B03B
:102F7000F0BD012514009D402C4000942A4200D150
:102F80009CE04A685F009446032264462240032482
:102F9000BC40E4430194541E012C2ED88668019C49
:102FA0002640CC68BC403443846044680126AC436E
:102FB00025006446240934409C402C434460C56885
:102FC000019C25408C68BC402C43C460022A16D169
:102FD00007250F261D40AD00AE40DC08A4000419F3
:102FE0000294246A03962600039CA64334000E69CB
:102FF000AE402643029C266201E0032ADFD1BA409C
:103000000468019D25402A43C02402606246A40250
:10301000224253D001252A4CA027626BFF052A4388
:103020006263284A9C08A400A4180F2202351D40A0
:10303000AD00AA40A66896430022B84214D0224FA1
:103040000132B84210D0214F0132B8420CD0204F8B
:103050000132B84208D01F4F0132B84204D01E4A94
:103060008218571EBA410532AA4067463243A26011
:103070001A4A009C1668009DE4433543FF0301D4BF
:1030800035002540674615605668009D3543BF03EF
:1030900001D435002540674655609668009D35434C
:1030A000FF0201D43500254067469560D568009E33
:1030B0002E43BF0201D425402E00D660013352E7D3
:1030C00000100240000001400004005000080050C1
:1030D000000C00500010005000E4FFAF000401405D
:1030E000F0B500220F0085B03B00D34001D105B000
:1030F000F0BD012393401C0001933C401F425AD075
:103100002E4B032591088900C9180F231540AD00E7
:10311000AB408E6802931E400396A0260023F6055E
:10312000B04218D0264B9C460123604513D0254B56
:103130009C46022360450ED0234B9C4603236045EA
:1031400009D0224B9C460423604504D0204BC31871
:103150005E1EB3410533AB40039DAB4210D11D4B06
:103160001D68A5431D605D68A5435D609D68A5431E
:103170009D60DD68A543DD608B68029CA3438B6086
:10318000032451008C4007210F26114089008E40F6
:103190000368019923430360D3089B00C3181D6A89
:1031A000B5431D62C368A343C36043688B43436058
:1031B0008368A3438360013296E7C0460000014064
:1031C0000004005000080050000C00500010005097
:1031D00000E4FFAF0004014000690840431E98412D
:1031E000C0B27047002A01D0816170478162FCE75C
:1031F000044B10B55A69104202D0586101F07CF8B6
:1032000010BDC04600040140F8B504000120002CA8
:1032100035D025681A4B1421E818FCF781FF194BAB
:10322000800023640223A21D6064D3772E68164BAE
:10323000A1681E40E36827690B433B4367693B4332
:10324000A7693B43E7693B43276A3B4333432B6012
:103250008023DB0199420CD01C2528400D3D854080
:103260000A490B68AB430B6063680D6883402B43CE
:103270000B6000200123E0630534D377E077F8BDCD
:10328000F8FFFDBF000002400F80FFFFA8000240D2
:1032900070B5012504002800002C21D026681421D7
:1032A0003368AB4333600F4BF018FCF739FF1C2138
:1032B000830063640B4000209D400D3999400A4A09
:1032C000A31D226430605560084D2A688A432A6035
:1032D000E06220636063A063E0630534D877E07741
:1032E00070BDC046F8FFFDBF00000240A8000240CC
:1032F00030B5841DE27F0300022A06D00422C26397
:10330000012000220533DA7730BD02680E201168F3
:103310001C258143116001211068884310605A6C9C
:10332000186C2A400D00954045600020E177E8E7E1
:1033300070B5841DE37F022B03D00423C3630120F7
:1033400070BD0E2103681C251A688A431A60012289
:10335000196891431960436C016C2B4015009D4026
:103360004D60E2770022431DDA77836B934200D0F1
:1033700098470020E4E7F8B51C260427426C016C4E
:1033800032403E0096400D6803681C6835420DD0FF
:103390003C420BD01A68920602D41A68BA431A60EB
:1033A000036B4E60002B19D0984717E002273E00B0
:1033B0009640354213D03C4211D01A68920606D48A
:1033C0000A241A68A2431A600122831DDA770022B8
:1033D000431D4E60DA77C36A9342E5D1F8BD0826F3
:1033E000370097403D42F9D03442F7D00E251C6893
:1033F000AC431C6001231C009440821D4C60C363DD
:10340000D3770022431DDA77436BE5E78023034A35
:103410005B0011680B4313607047C04600700040AA
:10342000194BF0B51E680500802034000127174AAB
:103430008000126A04403A40064205D0002A03D0B8
:103440001868134E3040186003261868B0432843AC
:10345000042518600F4806693543056101290ED11E
:1034600030BF04250169A9430161002C06D0002A60
:1034700004D08022196892000A431A60F0BD40BF50
:1034800020BF20BFEDE7C0460070004000000140B3
:10349000FFFDFFFF00ED00E010B5FF2403220B004D
:1034A00021000240D20091409B012340C943934038
:1034B00000280ADBC0240B4A800880008018A40082
:1034C00002590A401343035110BD0F22104008381F
:1034D000054A800880008018C26911401943C16103
:1034E000F2E7C04600E100E000ED00E0002805DB67
:1034F0001F2318401E3B8340014A13607047C0469B
:1035000000E100E0002809DB1F2318401E3B834038
:10351000034AD367BFF34F8FBFF36F8F7047C04627
:1035200004E100E08022431E5204012093420DD2A8
:10353000C021074A07485360036A09061B021B0A99
:103540000B43036200200723906013607047C0465E
:1035500010E000E000ED00E0704710B5FFF7FCFF61
:1035600010BD0000084B13B5040008491868FCF7AB
:10357000D7FD44430194019B002B00D113BD019B57
:10358000013B0193F7E7C0460C00002040420F00CA
:103590000422036870B599680400114201D100202B
:1035A00070BD9968114206D09A68920703D4102220
:1035B00099680A439A60FEF7CDFF04260500236848
:1035C0009B683342EBD0FEF7C5FF401B0A28F6D9B3
:1035D00023689B683342F2D010230120626D1343AD
:1035E0006365A36D0343A365DAE70321026870B541
:1035F000936804000B40012B01D0002070BD1068BF
:103600001842FAD0052095680540012D1BD10223F0
:103610009068034393601160FEF79CFF06002368E7
:103620009B682B42E9D0FEF795FF801B0A28F6D94C
:1036300023689B682B42F2D01023626D13436365AD
:10364000A36D2B4305E01022616D0A436265A26DF4
:1036500013430120A365D1E70321036870B59A687D
:1036600004000A40012A04D11968114201D0002047
:1036700070BD9968154A114209D01023626D134339
:1036800063650123A26D13430120A365F0E70125C3
:103690009A6828002A439A60FFF764FFFEF75AFFF2
:1036A000060023681B682B42E1D1FEF753FF801B05
:1036B0000A28F6D923681B682B42F2D11023626DC9
:1036C00013436365A36D2B43DEE7C04617000080FC
:1036D00070B5041E16D0436D002B05D10200503288
:1036E0008365137000F058FC636DDB0603D4236818
:1036F0009A68520708D51023626D503413436360F3
:1037000000232370012070BD616D564A11400632BE
:10371000FF320A436265032299681140524A012927
:1037200002D11868084219D180256168ED0548006A
:103730004008A84203D080200006814276D1186953
:103740008000800818611869014319611820D96840
:103750008143D960D968A0680143D96011684348A2
:1037600001401160616B10684906014311608022BD
:1037700099685205114202D199680A439A60DA6841
:103780003B49256B0A40DA60621CD17FE268D86849
:103790002A430243A06980030243E069C003024355
:1037A0004803024320002C30007840000243206987
:1037B00002384542684180000243C220DA60626AF2
:1037C000FF30824204D0A56AD8682A430243DA60F7
:1037D000A21CD27F012A06D1002933D18022D968C8
:1037E00052020A43DA60E16B1A69012932D1214899
:1037F000656C02401A61226C18692A43A56C2A4341
:1038000002431A611A691143196107215A6900209C
:103810008A435A615A69A16B0A435A610323A0651E
:10382000626D9A43023B134363656CE71869124D5E
:1038300080008008186110682840106010680143FB
:10384000116083E72021606D01436165A16D0A432A
:10385000A265C8E701210A42D7D01A698A431A61D2
:10386000D3E7C046FDFEFFFF08270140FFFFFFFD35
:103870001902FEFF03FCFFFFFFFFC3FF70B504004A
:103880000125002811D00223426D13434365FFF741
:103890007FFE051E37D12000FFF7A7FE0500012897
:1038A00005D10125002350342370280070BD012369
:1038B0006365236815495A6820000A405A60144A13
:1038C00014491A609A680A409A60DA6812490A40F4
:1038D000DA601A6911490A4007211A615A698A4354
:1038E0005A611A6A0E490A407F211A62B4331A6873
:1038F0008A431A601A688A431A6000F057FB002353
:10390000A3656365CEE70128D3D1CAE760F7FFFF5F
:103910009F080000FFFFFFEF00023E8302FCFF3F15
:1039200000F000F0036870B59B68040002205B079C
:103930001AD4250050352B78012B15D001232B707C
:10394000E369012B11D1626D0B4B00201A408023DB
:103950005B0013431C226365A065287023681A600E
:103960009968183A0A439A6070BD2000FFF774FE08
:103970000028E8D0F8E7C046FEF0FFFF70B506006B
:103980005036337804000220012B12D0012520008C
:103990003570FFF7FDFD002809D12000FFF725FE57
:1039A000002804D1636D034A13401D43656500235D
:1039B000337070BDFEFEFFFFF8B5456904000E00D0
:1039C000082D0DD003680120DB680C25034207D0C9
:1039D0002023626D50341343636000232370F8BDCD
:1039E000FEF7B8FD070023681A68154223D080222D
:1039F000616D92000A436265C022D96812011142CA
:103A000014D1621CD27F002A10D11A6812070DD57A
:103A10009A68520727D40C215A688A435A60616D0C
:103A2000174A11400432FF320A436265A269002A34
:103A300022D00020D3E7721CD6D0002E0DD12A0050
:103A400023681B681A401D42CDD10423616D503498
:103A50000B43636003202270C1E7FEF77BFDC01BB0
:103A6000B042ECD8BFE72022616D0A4362650122B3
:103A7000A16D0A43A265D9E70C221A60D9E7C046B6
:103A8000FEFEFFFF0368186C70470000F8B50400E5
:103A90005034227803000220012A0BD00138207014
:103AA0001A6895686D0706D52022596D0A435A6534
:103AB00000232370F8BD802380260D68194F4968C4
:103AC0006803DB02400B2B40B602B94218D0916A62
:103AD00001439162002B08D08023134A1B04116814
:103AE0000A200B431360FFF73DFD354205D08023CC
:103AF0000D4ADB0311680B43136000202070D9E7E7
:103B0000916A81439162002B04D0074A07491368E8
:103B10000B4013603542F0D0034A054913680B404F
:103B2000EAE7C0460110000008270140FFFF7FFFC1
:103B3000FFFFBFFF406D7047F8B5050050352B788B
:103B400004000220012B47D0012303222B7023689D
:103B500098681040012809D11A68024206D0202333
:103B6000626D1343636500232B7035E0616D1B4A62
:103B700011400632FF320A4303216265DE68DA68CB
:103B80008A43DA608022996812060A439A60FEF737
:103B9000E1FC070023689A68002A0BDB0321DA683E
:103BA0000E401643DE600123626D00208A431343FA
:103BB0006365D8E7FEF7CEFCC01B0A28EAD9236864
:103BC0009B68002BE6DA1223626D01209A43023BC8
:103BD0001343636500232B70F8BDC046FDFEFFFF55
:103BE00010B500F0D5FB10BD10B500F076FE10BD8D
:103BF00010B500F072FE10BD0020704710B500F047
:103C000081FE10BD10B500F06FFE10BD10B500F0C4
:103C10006BFE10BD07B501916946009201F0E4F812
:103C200007BD10B501F0FEF810BD10B500F0E1FAC7
:103C300001F005F910BD10B500F0D0FA01F0FAF866
:103C400010BD000010B503280ED8FCF74BFA020691
:103C5000080A0E4800F0CAF910BD0D48FAE70D48F1
:103C6000F8E7C0200001F5E70B490C4801F02AF9FC
:103C70000B4C200001F026F90A4801F023F920003E
:103C800001F020F900F084FBE6E7C0462C0D0000AF
:103C9000C80C0000640C0000D8FA010866C20108D4
:103CA0007FE80108C6CF010810B503280ED8FCF73D
:103CB00019FA0206080A0E4800F082F910BD0D48F4
:103CC000FAE70D48F8E7C0200001F5E70B490C487A
:103CD00001F0F8F80B4C200001F0F4F80A4801F06C
:103CE000F1F8200001F0EEF800F052FBE6E7C046E4
:103CF0002C0D0000C80C0000640C0000BBFA010889
:103D000066C201087FE80108C6CF010810B5034B61
:103D100001002022180013F071FF10BD2D3000208B
:103D200010B52022014913F069FF10BD2D3000208D
:103D3000014B18707047C0462C300020014B18789A
:103D4000C0B270472C30002010B501F019FA10BD38
:103D500010B501F02AFA10BD10B502000124044B81
:103D600018001C709A60596000F04AF910BDC046F6
:103D70009C05002010B5012000F06CFA10BD7047C2
:103D8000704705207047FE20704710B500F072F8AC
:103D900000F0DAF8040000F0F7F8200010BD10B5CC
:103DA00000F068F800F0BCF8040000F0EDF8142111
:103DB0002000FCF7B5F9C0B210BD012070470FB468
:103DC00007B504A901C9019101F06AF803B008BC64
:103DD00004B0184770B50D000400FFF797FF0122EB
:103DE000044B21001A7004482A00FFF7E8FF00F096
:103DF000CFFA70BD2C30002026C4010870470000A7
:103E000037B5194D194A1A4B04006946280000922B
:103E10000193FFF73BFE002802D0002420003EBDA6
:103E2000802369465B01280000940193FFF72EFE72
:103E30000028F2D12800FFF775FD0028EDD10A21F6
:103E40002800FFF7B9FD041EE7D12800FFF772FE36
:103E5000800503D52800FFF715FE84B22800FFF780
:103E60008DFD0028DAD0D8E7A8050020FFFF070065
:103E700001100000C22170B5234B244CFF31236098
:103E8000C0236162BE39FF391B0661612100012236
:103E9000636000232C312000E360A3602261A362F1
:103EA0002384A3610B70E3632363A3636263E36111
:103EB000FFF70EFC00280FD01549164801F002F854
:103EC000154D280000F0FEFF144800F0FBFF28000D
:103ED00000F0F8FF00F05CFA00212000FFF72CFE54
:103EE00000280FD00A490B4800F0ECFF0A4C2000D4
:103EF00000F0E8FF094800F0E5FF200000F0E2FFD5
:103F000000F046FA70BDC04600240140A80500201C
:103F10001CFB010844C401087FE80108C6CF010862
:103F200010B50648FFF76CFF054B01001B880548DC
:103F30005843FCF7F5F880B210BDC04600000244BB
:103F40007800F81FB80B000070B5FFF7E9FF040018
:103F50000948FFF755FF094B604309491D88FCF7E5
:103F6000DFF8431B64205843064B1988491BFCF7B4
:103F70001DF91E3040B270BD000004487A00F81FE1
:103F8000B80B00007E00F81F10B50248FFF776FC62
:103F900010BDC046A80500208023034A9B00516B3A
:103FA0000B4353637047C04600100240024A034966
:103FB000536B0B405363704700100240FFFDFFFF3F
:103FC000F8B506000F0015000024FEF7A7FFAC426D
:103FD00003D1FEF7BBFF2000F8BD03493A5DA319EA
:103FE0005B181A700134F2E700000808030010B5EE
:103FF00008000249591813F001FE10BD000008081E
:10400000002808D08368002B05D00F210378024ACE
:104010000B409B009850704704060020F0B5160036
:104020000022F02382569B0195011D40A023012709
:10403000DB05ED180F230400380013409840636837
:104040008FB00A93A36801910B9300230C930D93F7
:10405000F0339C466146099013400A4232D13F4BEF
:10406000DA6A3A43DA62DB6A3B400393039B6B46AE
:1040700081B21A792800FFF7B5F809A92800FEF7E0
:104080006FFF88216268364B490313408B4203D08F
:1040900084239B039A4258D13000FFF7B1FF0023DD
:1040A000E3560E2219001140134247D0013213404B
:1040B000023B012B4BD9002207201100FFF7ECF93E
:1040C000072040E0102B09D10227244BDA6A3A433B
:1040D000DA62DB6A3B400493049BC8E7202B09D1DA
:1040E00004271E4BDA6A3A43DA62DB6A3B400593E7
:1040F000059BBCE7302B09D10827184BDA6A3A43F5
:10410000DA62DB6A3B400693069BB0E7402B09D19D
:104110001027124BDA6A3A43DA62DB6A3B400793B4
:10412000079BA4E7702BA2D180270C4BDA6A3A4395
:10413000DA62DB6A3B400893089B98E705200A0097
:10414000FFF7AAF90520FFF7D1F90FB0F0BD002263
:1041500006201100FFF7A0F90620F4E70010024046
:10416000FFFFDFFF7FB501220292002201AB187032
:10417000481E81411800039204920592FFF74EFFFA
:1041800007B000BDF0B58FB00091134905000800DD
:1041900001921A0005AB9C46D0C8D0C3006810310C
:1041A000186002AB1800D0C9D0C06446019909A8B4
:1041B000890009590570416000998900CB588360D6
:1041C0000023C36003619A4200D015700021FFF7FD
:1041D00025FF0FB0F0BDC046A8BB010810B50520F3
:1041E000FFF784F90620FFF781F90720FFF77EF932
:1041F00010BD10B50520FFF785F90620FFF782F9FD
:104200000720FFF77FF910BD4B1E99410F23CAB25B
:10421000012103409940F02380019B011840A02315
:1042200010B5DB0589B2C018FEF7DCFF10BD0F2307
:10423000012103409940F02380019B011840A023F5
:10424000DB0510B5C01889B2FEF7C6FF431E9841C2
:1042500010BD0000C0230E21074A5B00084207D0B2
:104260000131084002384021012802D9802100E0B4
:104270002021D1507047C04600E100E010B5012078
:10428000FEF7B6FF0220FEF7B3FF10BD10B5042005
:10429000FEF7AEFF0820FEF7ABFF10BD10B51020F3
:1042A000FEF7A6FF2020FEF7A3FF4020FEF7A0FFA9
:1042B0008020FEF79DFF80204000FEF799FF8020C0
:1042C0008000FEF795FF8020C000FEF791FF802060
:1042D0000001FEF78DFF80204001FEF789FF80205E
:1042E0008001FEF785FF8020C001FEF781FF80205E
:1042F0000002FEF77DFF10BD030010B5002806D0B8
:10430000002302E001334008DBB20128FAD1054A5C
:104310009B009B58002B04D09A68002A01D0586853
:10432000904710BD0406002000B585B00190019AA9
:1043300013005B019B1A9B009B18DB00892118006E
:10434000FBF734FF030002930023039303E0C0460E
:10435000039B01330393039A029B9A42F7D3C0460F
:10436000C04605B000BDC0460122014B1A7070471F
:1043700044060020EFF31083036072B670470368B1
:1043800083F31088704772B6704762B670470000BA
:1043900072B6BFF34F8F034B034ADA60BFF34F8F00
:1043A000C046FDE700ED00E00400FA05F0B59DB061
:1043B000FEF7B0F8342200210EA813F07EFB4F4C1C
:1043C00014220021684613F078FB2022002106A861
:1043D00013F073FBFFF71AF8236D494A02251340C7
:1043E00023650E2380220E93012352001092119315
:1043F00001231022129213930023189380231B038E
:10440000199380230EA81B0417951A93FEF714F92D
:10441000002812D03B4C3C4925002000163500F006
:1044200051FD280000F04EFD2000173000F04AFD3D
:10443000280000F047FDFFF7ABFF0F220323002603
:104440000027049001216846009201930296039789
:10445000FEF740FB0028DDD1C0231B030D93802312
:10446000AB225B020B9006A8089609970692079369
:10447000FEF788FC061ECDD18023A26B5B0513439B
:10448000A3638023E2681B021343E360012104203D
:10449000FFF768FE3300320031000720FFF772FE9D
:1044A0000122330010002900FFF76CFE01212220B9
:1044B000FFF758FE00F012FD00F05CFC1A23280004
:1044C0001E221F2100F090FA00F080F900F04CFE4F
:1044D00016221921012000F079FE14221323152140
:1044E000012000F081FA0949094801F031F8094B2F
:1044F0001E7000F01FFE1DB0F0BDC046001002404F
:10450000FFE7FFFFC4BB010838FB0108694300084F
:104510004806002044060020F0B5040097B00028AB
:1045200005DD544D2B78022B03D100232B7017B0DF
:10453000F0BD00F011FE2B78002BF8D101254E4B79
:104540004E4900938C4256DD4D4B0098E41801F023
:10455000A3F80023019300264A4F00983E7001F013
:1045600001F8FEF70FF872B609A8FFF703FF022063
:1045700000F090FA00F0E4FC280000F08FFE280024
:1045800000F088FA29002800FEF74AFF099B83F310
:10459000108802A8FFF7EEFE3100142204A813F0E1
:1045A0008CFA3100342209A813F087FA8023364AA6
:1045B0000396916B5B050B4309A89363FEF778FBA9
:1045C000099609A802361296FEF736F8002818D088
:1045D0002E4C2F4925002000163500F073FC2800D2
:1045E00000F070FC2000173000F06CFC280000F098
:1045F00069FCFFF7CDFE2100009801F04DF8019510
:10460000A9E703A904A8FEF79DFB01220323039950
:1046100004A804920593FEF75DFA0028D8D100F0B3
:104620005DFC28001622192100F0D0FD280013237C
:104630001422152100F0D8F91A231E221F21300060
:1046400000F0D2F9029B83F3108862B6FDF7A2FF57
:1046500000F082FD3B78002B03D0019B002B00D1A2
:104660006DE73B78002B00D061E7034800F0E6FFE0
:104670005DE7C0466006002048060020204E00008E
:10468000E0B1FFFF4406002000100240C4BB010857
:1046900029FB010810B5FDF751FFFEF75EFF10BDC5
:1046A0000022012010B511004042FEF7F5FE10BDBA
:1046B00010B5FDF755FF10BD70B50C4C0C4825002A
:1046C000163500F0FFFB280000F0FCFB2000313025
:1046D00000F0F8FB280000F0F5FB20004C3000F063
:1046E000F1FB280000F0EEFBFEE7C046C4BB01086A
:1046F000E6BB0108F7B505000C00234F234EBB6A4B
:104700000022290030000193FDF7C2F800222100A9
:104710003000FDF78FF8BA6A019B9A42EDD1032170
:10472000EA781B486E7850430A40531E9A41534220
:10473000184A013E1340184AAD789B183D22724337
:104740007600F3400132D70F0330BA18013D8008DC
:104750002818521012180B40D31A104A21785A43C5
:10476000E1231B014B433C2160780D4D41435B1815
:10477000A17864685B189B18990D980200232A1B86
:104780008018594103B0F0BD002800406C0600209D
:10479000B5050000505555005055440080510100AA
:1047A000FF030000014B586A7047C0466C060020AA
:1047B00010B503490348FFF79DFF034B586210BD36
:1047C00094060020A80600206C06002030B51F22A9
:1047D0001C4C1D4BA260236000231C4A87B02000A4
:1047E0006360E26023616361A361E361FCF7BCFE87
:1047F00000280FD01649174800F064FB164D28001A
:1048000000F060FB154800F05DFB280000F05AFB4B
:10481000FFF7BEFD124B6946002220000093FCF713
:1048200091FF002201A920000292019205920492B8
:10483000FCF702FF2000FDF71FF9FFF7B9FF07B0F3
:1048400030BDC0466C06002000280040FF03000079
:104850004CFB010844C401087FE80108C6CF0108E9
:10486000010101007FB5684601A9FFF743FF024B34
:104870005B6AC01A07B000BD6C06002003207047B9
:1048800010B50348FDF79CF80022024B1A6010BDDA
:104890006C060020640600208205054B920D5343F0
:1048A000FA22800A920050439B0A18187047C046AB
:1048B0001027000070B586B0060001A96846FFF712
:1048C00019FF04008005800D0D00FFF7E5FFAD0521
:1048D0003080A00A284306B070BD07B56B46981D0E
:1048E000FFF7E8FF0EBD000013B56B469C1D2000CE
:1048F000FFF7E0FF024B43432088181816BDC0465F
:104900001027000010B5FFF7EFFF0A21FBF708FCA6
:1049100010BD10B5410E7D220023C001FBF7DAFC6B
:1049200010BD062343434000DB0918187047000000
:1049300070B5FFF7F6FF8023040000255B02984264
:1049400008D30B49FBF7ECFB094905002000FBF7F6
:1049500023FC0C00074B1D60074D2800FDF730F8C5
:104960000022064B280021001A70FCF7B3FF70BD2F
:10497000FFFF0000640600206C060020680600208F
:1049800010B50C4C2000FDF75DF80B4A1368002BA6
:1049900005D10122094B1A7000F012FE10BD013B37
:1049A00020001360FDF70CF8002220000449FCF7FA
:1049B00091FFF3E76C0600206406002068060020E3
:1049C000FFFF00008023074ADB02116D10B50B4387
:1049D0001365002211000220FEF75EFD0220FEF7A3
:1049E00085FD10BD00100240F7B56025471E7D43D0
:1049F000224E0193A85974196060822080234000E0
:104A0000A0609B000020E361F13BFF3B236200922A
:104A100000230022E06020616061A06160621848AC
:104A20002818026043600720206320005C3001707A
:104A30002100009B5D310B700435019B5E34A81989
:104A40002370FDF733F800280FD00E490E4800F010
:104A500039FA0E4C200000F035FA0D4800F032FA19
:104A6000200000F02FFAFFF793FC60237B43F61839
:104A70004023726811680B431360F7BD10000020DB
:104A8000380000207BFB010866C201087FE80108AE
:104A9000C6CF0108602310B5434302481818FDF73C
:104AA0006DF810BDB4FFFF1F602330B5022401383C
:104AB0004343084A9B589D682542FCD0C9B21973EC
:104AC00060234343D358012299681142FCD0187BDC
:104AD000C0B230BD10000020F0B5544C036822680D
:104AE00087B0934230D15C250C22002103A8655782
:104AF00012F0E3FF02230122029301330493230007
:104B00000F2011005D331B781600034099400B0005
:104B100029005E3401408E402178334301408A40B1
:104B200013430193F023A8019B011840A023DB0548
:104B3000C01801A9FEF714FA80233D4A5B01516BAE
:104B40000B43536307B0F0BD226E93425DD1022147
:104B5000374EF022F36A01200B43F362F36A9201AD
:104B60000B400093009B2300BC331B7807005BB213
:104B70009D011540A0220291013104910C31D20512
:104B800019408F40AD1800220521039201971A2B7E
:104B900004D0223BDBB298425241510028000591DB
:104BA00001A9FEF7DDF90121BD220F230800A2565D
:104BB00013409840052301901A2A05D00023223A79
:104BC000D2B291425B418B40280001A90593FEF7C8
:104BD000C7F90121BE220F230800A25613409840B6
:104BE000052301901A2A05D00023223AD2B291421D
:104BF0005B418B40280001A90593FEF7B1F98023A2
:104C0000B26BDB011343B3639CE70A490A4800F027
:104C100059F90A4C200000F055F9094800F052F902
:104C2000200000F04FF9FFF7B3FB8BE710000020E6
:104C3000001002406BFB010866C201087FE8010812
:104C4000C6CF0108F0B5414C0368226887B0934293
:104C500038D100253E4A3F49536B03A80B405363AC
:104C60003D4B0C225D57F023AD019B011D40A0235D
:104C70000021DB05ED1812F020FF0323012602932B
:104C800023000F2732005D331B7828003B409A40F9
:104C900001A90192FEF764F9002332000293023366
:104CA00003932D4B5E341B783B409A4013002278CF
:104CB00028003A40964001A933430193FEF750F98A
:104CC00007B0F0BD226E93422ED10025204A234921
:104CD000936B03A80B409363214B0C225D57F02389
:104CE000AD019B011D40A0230021DB05ED1812F052
:104CF000E4FE03230126029323000F273200BD3375
:104D00001B7828003B409A4001A90192FEF728F940
:104D100000233200029302330393114BBE341B78FD
:104D20003B409A401300C2E70E490F4800F0CAF812
:104D30000E4C200000F0C6F80D4800F0C3F820002B
:104D400000F0C0F8FFF724FBBAE7C04610000020CF
:104D500000100240FFEFFFFF6C000020FFBFFFFFCD
:104D6000CC00002059FB010866C201087FE8010859
:104D7000C6CF010880221448144B70B500240025CA
:104D80000360002312018260114A0462456243609D
:104D900042618362FCF714FA00280FD00D490E48D7
:104DA00000F090F80D4C200000F08CF80C4800F05A
:104DB00089F8200000F086F8FFF7EAFA0022094B94
:104DC0001A605A6070BDC046B8060020007C0040E2
:104DD000FFFF000088FB010844C401087FE80108C8
:104DE000C6CF0108AC060020FA22002310B59200BD
:104DF0000C00410DC002FBF76DFA802302005B023C
:104E0000984200D3044A04490448FCF711FB044BC0
:104E100003CC03C310BDC046FFFF0000B80600204E
:104E2000AC06002010B50248FCF744FB10BDC0469C
:104E3000B806002010B50D20FEF758FB10BD10B5C8
:104E40000D20FEF75FFB10BD10B5074C2000FCF7EE
:104E500016FA2000FCF7D4FA044A5368002B01D05C
:104E60001068984710BDC046B8060020AC06002068
:104E7000094B026810B59A420DD18023074A1B06E0
:104E8000916B0D200B43936300221100FEF704FB8E
:104E90000D20FEF72BFB10BD007C004000100240EF
:104EA00000B5C1B00A000100684612F0E7FD002815
:104EB00006DD6846FBF70EF9C1B2684600F048F817
:104EC00041B000BD0FB407B504A901C90191FFF7B6
:104ED000E7FF03B008BC04B0184700001248134BAA
:104EE00010B50360E1235B020822436000234261A6
:104EF0008360C36003618361C36103624362FDF742
:104F000077FA00280FD00A490A48FFF7DBFF0A4C5E
:104F10002000FFF7D7FF0948FFF7D4FF2000FFF775
:104F2000D1FFFFF735FA10BD6C07002000380140B3
:104F3000ABFB010844C401087FE80108C6CF0108A3
:104F400010B50248FCF760FE10BDC0466C0700209B
:104F500010B5044C0A000100034B2000FDF7A8F92E
:104F600010BDC0466C070020FFFFFF0070B503684E
:104F7000414A050088B093421FD180223F4BD201A5
:104F8000596BA0200A4301215A63DA6AC0050A431B
:104F9000DA62DB6AC0220B400093009B0423069375
:104FA0000223D200029203930022032302A9049257
:104FB0000593FDF7D5FF08B070BD314A934249D142
:104FC00080222E4B9202996BA0200A4301219A6302
:104FD000DA6A04260A43DA62DB6A0C220B40019388
:104FE000019B02230292039300220323C00502A91E
:104FF000049205930696FDF7B3FF224C224B8022C4
:105000002360002320006660A360E3602261636187
:10501000A361E3612362FEF7F7F800280FD01B4974
:105020001B48FFF74FFF1B4E3000FFF74BFF1A489E
:10503000FFF748FF3000FFF745FFFFF7A9F900220F
:105040001C2011002C67A562FEF726FA1C20FEF733
:105050004DFAB0E70D490E48FFF734FF0D4C200024
:10506000FFF730FF0C48FFF72DFF2000FFF72AFF66
:10507000FFF78EF99FE7C04600380140001002405C
:1050800000440040F0070020580002409AFB01084D
:1050900044C401087FE80108C6CF01080368174A25
:1050A00010B5934211D1164A1649536BA0200B40FC
:1050B0008021C00589005363FEF712F88021A020EB
:1050C000C900C005FEF70CF810BD0F4A9342FBD192
:1050D000A0200B4A0D49936BC0050B40936304213C
:1050E000FDF7FEFFA0200821C005FDF7F9FF0848E5
:1050F000FEF7CEF81C20FEF705FAE5E70038014080
:1051000000100240FFBFFFFF00440040FFFFFDFF13
:10511000F007002010B50248FEF72DF910BDC0467B
:10512000F007002010B50248FCF798FD10BDC046FE
:10513000E80600200548064B10B5036006234360CF
:10514000044BC3608360FDF787F910BD3808002069
:1051500000300040FF0F000010B50248FDF7AEF927
:1051600010BDC0463808002007B50422034901A835
:1051700012F044FD019811F059FE07BD710800209E
:1051800070B505000C00884207D8013411F07EFE8E
:10519000611BFBF701F8481970BD11F077FE291B60
:1051A0000131FAF7F9FF0819F6E770B505000C00B0
:1051B000884205DC091A0020FFF7E2FF281870BDBD
:1051C000411A0020FFF7DCFF2018F8E770B55424DF
:1051D000013844432B4D012660592B1958602A4849
:1051E000043498600020D86058619861D8611862D2
:1051F00058621800641950301E610170513320004C
:105200001A70FBF74BFE00280FD020492048FFF70B
:1052100059FE204D2800FFF755FE1F48FFF752FEAC
:105220002800FFF74FFEFFF7B3F800212000FBF73F
:105230005FFF00280FD015491548FFF743FE154DB5
:105240002800FFF73FFE1448FFF73CFE2800FFF759
:1052500039FEFFF79DF800212000FBF76FFF0028C3
:105260000FD00A490A48FFF72DFE0A4C2000FFF72D
:1052700029FE0948FFF726FE2000FFF723FEFFF76F
:1052800087F870BDD0000020BB7C7000D8FB0108FF
:1052900044C401087FE80108C6CF0108542310B5B3
:1052A000434302481818FBF74FFE10BD8000002052
:1052B000F0B5474C0368226887B0934244D123007D
:1052C000F02250331B7892015BB29D011540A02261
:1052D0000121D205AD180022080003921232029279
:1052E0000F3A04920C321A40904004220190192B7C
:1052F00006D00332212B03D00A00082B00D106323E
:10530000280001A90592FDF72BFE012151220F2350
:105310000800A2561340984004230190192A06D091
:105320000333212A03D00B00082A00D1063301A938
:1053300028000593FDF714FE8023264A9B03916BFA
:105340000B43936307B0F0BD2200A832126893426A
:105350002CD10023F9200125205603931233029308
:105360000F3B049304330F26059303002A003340B8
:10537000F0279A40A023BF018001DB053840C01808
:1053800001A90192FDF7ECFDF8202056A02306406C
:10539000B5408001DB053840C01801A90195FDF733
:1053A000DFFD80230B4ADB05916BC9E70A490B48F7
:1053B000FFF788FD0A4C2000FFF784FD0948FFF73E
:1053C00081FD2000FFF77EFDFEF7E2FFBAE7C04651
:1053D000D000002000100240C8FB010844C40108AE
:1053E0007FE80108C6CF010870B5294C0368226820
:1053F00093420ED18022274B9203996A0A439A6204
:105400009A6A25490A409A629A6B0A409A63002276
:1054100012E02200A8321268934227D180221D4B4D
:10542000D205996A0A439A629A6A1C490A409A62AA
:105430009A6B0A409A630222542353435020E41883
:10544000012320560F22513421781C0011408C403A
:105450000240934021001943F02380019B01184032
:10546000A023DB05C018FDF73BFE70BD0C490D48BD
:10547000FFF728FD0C4D2800FFF724FD0B48FFF730
:1054800021FD2800FFF71EFDFEF782FFBFE7C046A3
:10549000D000002000100240FFFFDFFFFFFFFFBF32
:1054A000B6FB010844C401087FE80108C6CF010823
:1054B00030B51D00094B85B01C780095631E9C41DA
:1054C000631C5424444306482018FA24E400029440
:1054D00001240194FBF752FD05B030BD48080020BF
:1054E00080000020094B10B51A68536951690029E2
:1054F00002D15061416110BD046819688C4202D923
:105500001A005B69F2E71900F3E7C0464C08002077
:1055100070B50400FFF7B2F9012363720500246837
:10552000FFF7A0F9201AA84200D22800FFF700FADE
:1055300070BD0000054A10B51368002B01D0002192
:10554000597243611060FFF7E3FF10BD4C08002063
:105550000023036043600381C160036143617047BE
:105560000161704737B5040001A8FEF703FF002C66
:105570000FD0124D2A681300002B0ED163682360F0
:1055800001232381002A0CD1FFF712F92000FFF735
:10559000D1FF01A8FEF7F3FE37BD9C42F9D05B694D
:1055A000EAE7FFF75FF92368C0182B6820601B68E3
:1055B0009842EBD32000FFF795FFEAE74C08002064
:1055C000F8B5FFF7EFF80500FFF7F2F81A4C23687B
:1055D000002B15D01A00471B5269002A06D15969C1
:1055E0001A72DA682160002A08D1FEE711680026E5
:1055F000B94201D949190E1A1660EDE718699047AA
:105600002368002B03D1206800280ED1F8BD1D6847
:10561000FFF728F98542F6D223685A6922600022F2
:105620001A72DA68002AE9D1FEE7437A002BEDD13D
:10563000FFF76EFFEAE7C0464C08002037B50400CC
:1056400001A8FEF797FE134D2B68002B01D0002C0C
:1056500003D101A8FEF793FE37BD00222272A342B8
:105660000FD1597A5C69914209D05A72944204D0A0
:1056700020002C60FFF74CFFEBE7FFF701F92C60EF
:10568000E7E71A005B69002BE3D09C42F9D163691C
:105690005361DEE74C08002070B505000800FFF7F5
:1056A00038F904002800FFF7C9FFFFF7E7F8844244
:1056B00000D204002C606C6070BD000010B50A4C74
:1056C00008222000094912F099FA082208490948DD
:1056D00012F094FA10220849084812F08FFA0123B8
:1056E0000134E37710BDC04650080020E4010020DB
:1056F000DC01002058080020CC01002060080020B8
:1057000010B50B4C00212220FEF77EFD2000FEF795
:105710000BFE01212220FEF777FD2000FEF704FE9C
:105720000448FEF701FE0122034B00201A7010BD51
:1057300088130000400D0300EC01002010B5072085
:10574000FEF775FD0128FAD010BD000010B50A4C17
:105750002378D9B2002B02D0FFF7F0FF10BD042050
:10576000FEF752FD01210420FEF74EFDFFF7E6FF94
:1057700001232370F2E7C046EC010020F7B50D00CD
:105780001C0008AB1B8816000193FFF7DFFF002108
:105790000420FEF739FD2F007619B74216D1019B80
:1057A000E618B44218D101210420FEF72DFD2B7814
:1057B000012B09D16B781B2B06D1FA200022094B53
:1057C00040001A70FEF7B0FD0020FEBD39780220BF
:1057D000FFF76AF90137E0E721780220FFF764F963
:1057E0000134DEE7EC010020F8B51D0006AB0C002B
:1057F00017001E88FFF7AAFF00210420FEF704FD12
:10580000E719BC421ED101210420FEF7FDFC002E49
:1058100016D0FFF79BFF00210420FEF7F5FC0021C6
:105820000220FFF741F9AE1900210220FFF73CF9F1
:1058300028700135B542F7D101210420FEF7E4FCC0
:105840000020F8BD21780220FFF72EF90134D8E7B7
:1058500070B50C001500FFF779FF00210420FEF75A
:10586000D3FC6519AC4205D101210420FEF7CCFC24
:10587000002070BD00210220FFF716F920700134CE
:10588000F0E710B5FFF762FF002010BD0F230122E3
:105890000B7000238A704B7002324B710433CA7054
:1058A0008B71013A04330A71CB71704701230B707D
:1058B00070470120087002211170A4221A607047FD
:1058C00000230B7070470000F0B52F4B89B0994250
:1058D00035D92E4BC9182E4B994243D92D4B04274D
:1058E0009C46072308260793043B06210E240593B4
:1058F00009333D0018000096013606910493039485
:105900000296019666461170079993725170069936
:10591000D3729170009B059953731171937304991D
:10592000029BD171D3730399019B5682D770557135
:105930009471117250721073137409B0F0BD00238A
:105940000C219C46032504240E3306930D3B05933E
:10595000053367461800079104940395009302935A
:105960000193CFE700230221042506200327052405
:1059700007269C46079123000691059704950395F9
:10598000009002960190BDE70046C32300BA3CDCBC
:10599000004E7253EE070000022330B51371032846
:1059A00038D8FAF79FFB021E3E630B1C0F2912DD4D
:1059B0000F2300211C00117051701134354964B25D
:1059C000032060430C186578415CA4789570D4700E
:1059D000517193711EE049B21131EADA2E4B1B78F6
:1059E000E7E70C1C162916DD1624012063B210709F
:1059F0009471082900DC00205070032027490933E6
:105A00005BB258430B0009184C788978C35C9470DA
:105A1000D170537130BD4BB20933E6DA204B1C789C
:105A2000E3E70B00113312DAEF231121937149429E
:105A30000023113113705370164B48B203214143B8
:105A4000581844788078CB5C9470D070E1E71629C0
:105A500008DD16219171012309311370537048B28A
:105A60000E4BEBE791710F29F5DCE1E70B1C0D29DB
:105A700009DD0D2302211C00117000211234517028
:105A800064B208499CE749B21231F3DA064B1B783D
:105A9000F0E7C046A9FC0108E5FB010849FC010844
:105AA000E6FB0108E9FB0108E7FB010837B56B4697
:105AB0000D000020D91D140001F02AF8002802D0A2
:105AC00000236A46D3716B466A6800210648DB7979
:105AD0009042804169565BB2C918404222000230B0
